:100000000C94E4170C9415180C9415180C941518EE
:100010000C9415180C9415180C9415180C941518AC
:100020000C9415180C943AAE0C943AAE0C943AAE6B
:100030000C9415180C9429440C9415180C9415184C
:100040000C9415180C94CBC60C9415180C94151818
:100050000C9415180C9415180C940EA50C94DF43F1
:100060000C9415180C9453370C9449370C941518AC
:100070000C9415180C9415180C9415180C9415184C
:100080000C94BD300C9415180C9415180C9415187C
:100090000C94697A0C94C8440C9415180C94151897
:1000A0000C9415180C9415180C9490300C94151889
:1000B0000C9415180C9415180C9415180C9415180C
:1000C0000C9415180C9415180C9415180C941518FC
:1000D0000C9415180C9415180C9415180C941518EC
:1000E0000C94151846314A314A314A3103310F31E7
:1000F0001A3125314A313B313031523210335832C6
:1001000061326A3273328932943210339F32103343
:100110001033103310331033AB321033BB32C432D0
:1001200010331033D6321033DF32E832F132FE3280
:10013000103307332C330D3434333F334A335533C4
:100140006D337A330D3487330D340D340D340D3463
:100150000D3495330D34A733B5330D340D34C93315
:100160000D34D433DF33EA33F9330D340434293416
:100170000A3531343C34473452346A3477340A35E2
:1001800084340A350A350A350A350A3592340A3577
:10019000A434B2340A350A35C6340A35D134DC34D5
:1001A000E734F6340A3501352635CD352B35323571
:1001B0003935403555355E35CD356735CD35CD359D
:1001C000CD35CD35CD357135CD357F358935CD350D
:1001D000CD359D35CD35A535AC35B335BF35CD35B0
:1001E000C735E4356836E735EC35F135F63509368F
:1001F00010366836173668366836683668366836B8
:100200001F3668362B3630366836683642366836E2
:1002100048364D3652365C366836623656475C474D
:1002200062476E477A47094886478F479847A447F1
:10023000B047BC47CD47D9470948E547F147FD4797
:10024000097A3B7A3D7A4A7A4F7A077A587A1DA41E
:1002500053A458A46BA470A483A48FA40DA410AFBE
:1002600013AF02AF06AF0AAF4AAF17AF1BAF21AF54
:1002700025AF29AF2FAF33AF37AF4AAF3DAF41AF57
:1002800045AF2DB933B938B946B94CB951B957B999
:100290005CB977B977B963B977B968B96DB972B92B
:1002A00097B99DB9A2B9B0B9B6B9BBB9C1B9C6B908
:1002B000E1B9E1B9CDB9E1B9D2B9D7B9DCB901BA7F
:1002C00007BA0CBA1ABA20BA25BA2BBA30BA4BBA46
:1002D0004BBA37BA4BBA3CBA41BA46BA6BBA71BAE2
:1002E00076BA84BA8ABA8FBA95BA9ABAB5BAB5BA92
:1002F000A1BAB5BAA6BAABBAB0BACDBAD3BAD8BA5F
:10030000E6BAECBAF1BAF7BAFCBA17BB17BB03BB33
:1003100017BB08BB0DBB12BB0EDF14DF1EDF29DFCE
:1003200034DF3FDF4ADF55DF89DF89DF89DF89DF9F
:1003300060DFA8DFB4DFC4DFD5DFE6DFF7DF08E08A
:1003400019E050E050E050E050E027E06FE07BE043
:100350008BE09CE0ADE0BEE0CFE0E0E017E117E12C
:1003600017E117E1EEE036E13FE14DE158E163E1ED
:100370006EE179E184E1B4E1B4E1B4E1B4E18EE1AC
:10038000CDE1D0E1D8E1DDE1E2E1E7E1ECE1F1E16D
:100390001EE21EE21EE21EE2F8E1084AD73B3BCE17
:1003A000016E84BCBFFDC12F3D6C74319ABD568374
:1003B0003DDA3D00C77F11BED9E4BB4C3E916BAA2C
:1003C000AABE000000803F05A84CCDB2D44EB9387B
:1003D00036A9020C50B9918688083CA6AAAA2ABE62
:1003E000000000803F004E414E494E495459494E4D
:1003F00046CDCCCC3D0AD7233C17B7D13877CC2B90
:10040000329595E6241FB14F0A000020410000C834
:100410004200401C4620BCBE4CCA1B0E5AAEC59DB5
:100420007400407A10F35A00A0724E18090010A50B
:10043000D4E80000E87648170000E40B54020000FE
:10044000CA9A3B000000E1F5050000809698000084
:100450000040420F000000A08601000000102700AD
:10046000000000E803000000006400000000000A33
:1004700000000000000100000000002C76D888DC9D
:10048000674F0823DFC1DFAE59E1B1B796E5E3E47A
:1004900053C63AE651997696E8E6C28426EB898CF3
:1004A0009B62ED407C6FFCEFBC9C9F40F2BAA56F55
:1004B000A5F490055A2AF75C936B6CF9676DC11B24
:1004C000FCE0E40D47FEF520E6B500D0ED902E03EC
:1004D00000943577050080841E080000204E0A0035
:1004E0000000C80C333333330F986E12831141EF81
:1004F0008D2114893BE65516CFFEE6DB18D1844BDF
:10050000381BF77C1D901DA4BBE424203284725E4E
:10051000228100C9F124ECA1E53D27434F4D4D5503
:100520004E49434154494F4E0044525952554E0092
:100530004552524F525300494E464F004543484F93
:10054000006F6B0020647269766572206375727249
:10055000656E743A20002064726976657220637556
:100560007272656E743A200020647269766572203A
:1005700063757272656E743A2000206472697665E4
:10058000722063757272656E743A2000206472691D
:100590007665722063757272656E743A2000454507
:1005A00050524F4D2064697361626C65640A004863
:1005B0006F6D6520257325732573204669727374EA
:1005C000004F666673657473204170706C69656472
:1005D000004572723A20546F6F2066617221005498
:1005E0006F6F206661722066726F6D20726566653E
:1005F00072656E636520706F696E740A0001010197
:1006000000007A4300007A430000A0434C4344209A
:10061000436F6E74726173743A200020643A002054
:10062000693A0020703A00496E76616C6964206511
:10063000787472756465720A00206F7574206F6635
:100640002072616E67650A00536572766F20003A0A
:10065000200020536572766F200020466C6F773A39
:10066000200046523A00486F74656E64206F6666DB
:10067000736574733A004F4646004F4E0020580091
:1006800020204D61783A2000200020204D696E3AEC
:100690002000536F667420656E6473746F70733AD4
:1006A0002000205A002059004D32303620580020BA
:1006B0005400205200416363656C65726174696F18
:1006C0006E3A2050004D31343520533C696E6465DC
:1006D000783E206F7574206F662072616E676520AA
:1006E00028302D31290A002F2F004D45415450410B
:1006F000434B00434F4F4C45525F54454D5045527C
:100700004154555245004348414D4245525F54457E
:100710004D5045524154555245004241425953545F
:10072000455050494E470041524353004D4F5449A4
:100730004F4E5F4D4F44455300544845524D414C38
:100740005F50524F54454354494F4E004C4F4E4713
:100750005F46494C454E414D45004155544F524529
:10076000504F52545F53445F5354415455530053B8
:10077000445F575249544500524550454154005337
:1007800044434152440050524F4D50545F535550D2
:10079000504F525400484F53545F414354494F4EB9
:1007A0005F434F4D4D414E445300454D45524745E3
:1007B0004E43595F50415253455200434153455FA8
:1007C0004C494748545F4252494748544E45535359
:1007D00000544F47474C455F4C49474854530053DA
:1007E0004F4654574152455F504F5745520042556E
:1007F000494C445F50455243454E54004C45564584
:100800004C494E475F44415441005A5F50524F4259
:10081000450052554E4F5554004155544F4C455686
:10082000454C005052494E545F4A4F420050524F7F
:100830004752455353004155544F5245504F52541F
:100840005F54454D50004155544F5245504F5254FE
:100850005F504F5300564F4C554D4554524943003D
:10086000454550524F4D0042494E4152595F46490D
:100870004C455F5452414E534645520053455249F0
:10088000414C5F584F4E5F584F4646004649524DC7
:10089000574152455F4E414D453A4D61726C696E0C
:1008A00020322E302E392E312028536570203237D9
:1008B00020323032312031333A32363A323929203F
:1008C000534F555243455F434F44455F55524C3A51
:1008D0006769746875622E636F6D2F4D61726C6904
:1008E0006E4669726D776172652F4D61726C696ECB
:1008F0002050524F544F434F4C5F56455253494F2F
:100900004E3A312E30204D414348494E455F5459AF
:1009100050453A3344205072696E746572204558D0
:100920005452554445525F434F554E543A32205528
:100930005549443A63656465326132662D343161EC
:10094000322D343734382D396231322D63353563E9
:1009500036326633363766660A0033442050726991
:100960006E746572204F46462E004D313133205350
:10097000006F6666003C053705300529051B0544F8
:10098000454255473A006F6B002569730025696D34
:1009900020256973002569682025696D2025697304
:1009A00000256964202569682025696D2025697303
:1009B0000025697920256964202569682025696DED
:1009C00020256973005072696E742074696D653AF0
:1009D00020004E6F204D6F76652E00436C69636B6F
:1009E00020746F20526573756D652E2E2E00536C2A
:1009F0006565702E2E2E0047322F473320626164CA
:100A000020706172616D65746572730A0020746F85
:100A10006F206C6F6E6720657874727573696F6E86
:100A20002070726576656E7465640A00506C65614D
:100A30007365205265736574005052494E54455297
:100A40002048414C5445440025533A202553004B3F
:100A5000494C4C45442E20005072696E74657220DA
:100A600068616C7465642E206B696C6C2829206346
:100A7000616C6C6564210A006563686F3A004572B9
:100A8000726F723A0066616C73650074727565000E
:100A9000303D2E33323500313D2E3138006D6178D6
:100AA000002F3331002F3331002F333100303D2EF2
:100AB00033323500313D2E3138006D6178002F33EF
:100AC00031002F3331002F333100303D2E3332359A
:100AD00000313D2E3138006D6178002F3331002F09
:100AE0003331002F333100303D2E33323500313D6C
:100AF0002E3138006D6178002F3331002F333100F3
:100B00002F333100303D2E33323500313D2E313818
:100B1000006D6178002F3331002F3331002F3331D6
:100B2000004361703A006F6B0A00526573656E6432
:100B30003A200020573A00436F6F6C696E672E2E83
:100B40002E0048656174696E672E2E2E0045256360
:100B50002025530020573A0042656420436F6F6C94
:100B6000696E672E2E2E00426564204865617469A7
:100B70006E672E2E2E0023646566696E65204445DF
:100B80004641554C545F004B6420004B6920004B9C
:100B9000702000504944204175746F74756E652053
:100BA00066696E6973686564212050757420746885
:100BB00065206C617374204B702C204B6920616E32
:100BC00064204B6420636F6E7374616E747320666F
:100BD000726F6D2062656C6F7720696E746F204351
:100BE0006F6E66696775726174696F6E2E680A0050
:100BF000504944204175746F74756E652066616953
:100C00006C6564212074696D656F75740A005049C4
:100C100044204175746F74756E65206661696C65FA
:100C200064212054656D70657261747572652074FD
:100C30006F6F20686967680A00204B643A200020C3
:100C40004B693A2000204B703A200020436C6173BE
:100C500073696320504944200A002054753A2000EB
:100C6000204B753A2000206D61783A2000206D6994
:100C70006E3A200020643A200020626961733A20B5
:100C800000504944204175746F74756E652073740B
:100C90006172740A00504944204175746F74756E16
:100CA00065206661696C6564212054656D706572AC
:100CB000617475726520746F6F20686967680A00D7
:100CC000504944204175746F74756E652066616982
:100CD0006C656421204261642068656174657220DE
:100CE00069640A00504944204175746F74756E65DB
:100CF00000026D61726C696E66772E6F72670032EA
:100D00002E302E392E31001FFFFFFFFFFFFF600046
:100D100000000001FF400000000000FF8000000014
:100D200000007F83CF00000C303F87FF80000C3035
:100D30001F867980000C000F8C30C7838C30E78CC5
:100D400030CFC7CC31F38C30DCECEC33B98C30D8FD
:100D50006C6C33198C30D06C0C33198C30D86C0C13
:100D600033198C30DC6C0E3B198C30CF7C079F190B
:100D70008C30C77C038F1940000000000002600027
:100D800000000000061FFFFFFFFFFFF810006003D8
:100D900050012C0190012201D001180110020E0116
:100DA00070020401E002FA006003F0000004E600B3
:100DB000B004DC00A005D200B006C8000008BE00E8
:100DC000A009B400800BAA00D00DA00090109600DE
:100DD000C0138C0070178200901B780010206E00EA
:100DE000C0246400E02D500080353C00A03A28006B
:100DF000A03D1400003F0000A03FECFF2020506CFD
:100E0000616E6E657242756666657242797465736D
:100E10003A20002046726565204D656D6F72793A03
:100E20002000436F6D70696C65643A2053657020D3
:100E3000323720323032310A00204C617374205531
:100E40007064617465643A20323032312D30362D51
:100E50003237207C20417574686F723A20286E6F9B
:100E60006E652C2064656661756C7420636F6E66B8
:100E70006967290A004D61726C696E20322E302E2E
:100E8000392E310A0020536F6674776172652052E3
:100E9000657365740A00205761746368646F672026
:100EA00052657365740A002042726F776E206F7509
:100EB000742052657365740A002045787465726EFB
:100EC000616C2052657365740A00506F77657255C6
:100ED000700A0073746172740A00456E6473746FF3
:100EE000707300255320256320256320256320256A
:100EF0006300205A3A0020593A0020583A00656EA3
:100F00006473746F7073206869743A2000307800DD
:100F1000220A00556E6B6E6F776E20636F6D6D6188
:100F20006E643A2022003344205072696E746572F8
:100F30002052656164792E005072696E74696E6723
:100F40002E2E2E005072696E742050617573656488
:100F50000020453A00205A3A0020593A00583A00F9
:100F6000627573793A2070617573656420666F727B
:100F700020696E7075740A00627573793A20706129
:100F80007573656420666F7220757365720A0062FE
:100F90007573793A2070726F63657373696E670A4F
:100FA0000000000A0B02090C0D0E080703040100E3
:100FB0000000000000000000000000000000000031
:100FC00000000000000000000000000000121110EE
:100FD0000000000000000000000000000000000011
:100FE000000000000000004D31313220536875745C
:100FF000646F776E0053544F505045442E2000507C
:1010000072696E7465722073746F707065642064A9
:10101000756520746F206572726F72732E20466939
:101020007820746865206572726F7220616E64202A
:10103000757365204D39393920746F20726573746A
:101040006172742E202854656D70657261747572BA
:10105000652069732072657365742E205365742052
:10106000697420616674657220726573746172744C
:10107000696E67290A004E6F20436865636B73755C
:101080006D2077697468206C696E65206E756D627D
:1010900065722C204C617374204C696E653A200097
:1010A000636865636B73756D206D69736D617463DF
:1010B000682C204C617374204C696E653A20004C9A
:1010C000696E65204E756D626572206973206E6F62
:1010D00074204C617374204C696E65204E756D628E
:1010E00065722B312C204C617374204C696E653A0B
:1010F00020004D3131300053657269616C2073748A
:1011000061747573206D69736D617463680A002181
:1011100021204B494C4C20636175736564206279D2
:10112000204B494C4C20627574746F6E2F70696E41
:101130000A002121204B494C4C2063617573656482
:1011400020627920746F6F206D75636820696E610D
:1011500063746976652074696D65202D20637572EE
:1011600072656E7420636F6D6D616E643A2000204D
:10117000746F6F206C6F6E67206578747275736919
:101180006F6E2070726576656E7465640A005A2011
:10119000526169736500326E64204E6F7A7A6C65B5
:1011A000205A00326E64204E6F7A7A6C65205900A6
:1011B000326E64204E6F7A7A6C6520580042656406
:1011C000004E6F7A7A6C650046616E2053706565DB
:1011D0006400436F6E66696775726174696F6E0053
:1011E000526573746F72652044656661756C7473C3
:1011F0000050726568656174202420436F6E66003C
:101200004C434420436F6E747261737400546F6F6B
:101210006C204368616E676500546F6F6C204F6689
:10122000667365747300416476616E636564205310
:10123000657474696E6773004D61696E001FE0200C
:10124000102310249010A011202210241037B00871
:1012500040048003001FE0201021102310152011EE
:10126000202110211031300840048003001FE03F8E
:10127000F03CF03B701F601EE03DF03BF038700F1B
:10128000C0078003001FE03FF03EF03CF01AE01E74
:10129000E03EF03EF03EF00FC00780030042656480
:1012A00000456E636C6F73757265002020202020EE
:1012B000202000202020200055123D1285126D12A2
:1012C0003FFFF038007030FC3020FC1020781020F8
:1012D00030102C00D02E31D02F7BD02F7BD02E3150
:1012E000D02C00D020301020781020FC1030FC30A2
:1012F0003800703FFFF03FFFF03800703186302338
:1013000087102787902F87D02F03D0203010207888
:10131000102078102030102F03D02F87D0278790EF
:101320002387103186303800703FFFF01FFFF81F11
:10133000FFF8041040020820020820041040082092
:10134000801041001041000820800410400000007F
:101350001FFFF81FFFF84572723A20757466382037
:10136000666F6E74206E6F7420696E697469616C4B
:10137000697A65642E004572723A20757466382069
:10138000666F6E74206E6F7420696E697469616C2B
:10139000697A65642E004572723A20757466382049
:1013A000666F6E74206E6F7420696E697469616C0B
:1013B000697A65642E00FFE0FFD140A0C8A6A22F85
:1013C000F80023AC00AF10FFFEFF05FFD0FFE0FFE9
:1013D000C1FFD1E240A0C8A6A22FF800238127AC0C
:1013E00000AFFFD0FF64FFD1A5FFD0FF64FF64FF13
:1013F000D1A4FFD0FF16FFFE000C0F00FE07022550
:1014000003BB017FFE08FE08FE0508080600004039
:10141000F0C88888987810050808060000C0F88889
:1014200088888888F80505050600012030F83020F6
:101430000508080600002070F820202020E005099B
:10144000090600FF2070A8A8B88888702007050545
:10145000070001D86C366CD80509090600FFF8A80A
:101460008888888888A8F8050A0A0600FE20505057
:10147000505088A8A8887003030306000340A040CA
:10148000FFFFFFFFFFFFFFFFFFFFFFFFFFFFFFFF6C
:10149000FFFFFFFFFFFF0000000605FF0107070633
:1014A000020080808080800080030303060105A085
:1014B000A0A005060606000050F85050F850050997
:1014C000090600FF2070A8A07028A8702005070753
:1014D000060000C8C81020409898050707060000BD
:1014E00040A0A040A8906801030306020580808008
:1014F0000309090601FF204040808080404020030E
:1015000009090601FF804040202020404080050757
:101510000706000020A8702070A820050505060019
:10152000012020F820200203030601FFC0408005AF
:101530000101060003F8020202060100C0C005070F
:10154000070600000810102040408005070706002D
:1015500000708898A8C8887003070706010040C07B
:1015600040404040E0050707060000708808102052
:1015700040F8050707060000F808103008887005D5
:10158000070706000010305090F8101005070706F6
:101590000000F880F0080888700507070600003092
:1015A0004080F0888870050707060000F8081010D2
:1015B0002020200507070600007088887088887042
:1015C0000507070600007088887808106002050586
:1015D000060100C0C000C0C00206060601FFC0C070
:1015E00000C0408003050506010120408040200521
:1015F0000303060002F800F8030505060101804018
:101600002040800507070600007088102020002079
:101610000507070600007088B8A8B880700507079E
:10162000060000708888F88888880507070600008B
:10163000F04848704848F0050707060000708880A9
:1016400080808870050707060000F0484848484831
:10165000F0050707060000F88080F08080F8050795
:1016600007060000F88080F08080800507070600EC
:1016700000708880809888700507070600008888B9
:1016800088F8888888030707060100E0404040404A
:1016900040E00507070600003810101010906005A4
:1016A00007070600008890A0C0A0908805070706DD
:1016B0000000808080808080F80507070600008891
:1016C000D8A8888888880507070600008888C8A8E1
:1016D00098888805070706000070888888888870C1
:1016E000050707060000F08888F08080800507075E
:1016F00006000070888888A8906805070706000023
:10170000F08888F0A09088050707060000708880A0
:1017100070088870050707060000F82020202020A8
:1017200020050707060000888888888888700507D4
:1017300007060000888888885050200507070600A3
:101740000088888888A8A8500507070600008888B0
:101750005020508888050707060000888850202000
:101760002020050707060000F80810204080F80335
:1017700009090601FFE080808080808080E0050705
:1017800007060000804040201010080309090601E8
:10179000FFE020202020202020E005030306000594
:1017A0002050880501010600FEF803030306010529
:1017B0008040200505050600007008788878050738
:1017C000070600008080F0888888F005050506007F
:1017D0000070808088700507070600000808788878
:1017E0008888780505050600007088F08070050778
:1017F00007060000304840E040404005070706006B
:10180000FE708888887808700507070600008080C9
:10181000F0888888880307070601004000C0404020
:1018200040E00409090601FE10003010101010906D
:101830006005070706000080808890E09088030715
:1018400007060100C04040404040E0050505060095
:1018500000D0A8A8A8A8050505060000B0C888887B
:10186000880505050600007088888870050707064A
:1018700000FEF0888888F080800507070600FE7863
:10188000888888780808050505060000B0C88080AB
:101890008005050506000078807008F0050707063A
:1018A00000002020F82020201805050506000088EB
:1018B00088889868050505060000888888502005F6
:1018C00005050600008888A8A85005050506000043
:1018D00088502050880507070600FE888888502019
:1018E0004080050505060000F8102040F8030909AE
:1018F0000601FF2040404080404040200109090689
:1019000002FF80808080808080808003090906013A
:10191000FF80404040204040408005030306000215
:1019200048A890FF2040002042403A0020403A0062
:10193000496E76616C69642065787472756465724D
:101940000A00416374697665204578747275646530
:10195000723A2000004D6F76652025736D6D004D45
:101960006F766520302E316D6D004D6F76652031BC
:101970006D6D004D6F76652031306D6D004578746A
:101980007275646572202A00457874727564657298
:10199000004D6F7665205A004D6F76652059004DD9
:1019A0006F76652058004D6F74696F6E00446973DF
:1019B00061626C65205374657070657273004D3898
:1019C00034004175746F20486F6D650047323800F0
:1019D0004D6F76652041786973004D61696E0050E6
:1019E000726568656174202420416C6C00507265DA
:1019F00068656174202420456E64207E0050726505
:101A000068656174202420426564005072656865D1
:101A100061742024207E0054656D70657261747558
:101A2000726500204D3932205400204D3932205843
:101A3000004452565F535441545553090050574D7A
:101A40005F5343414C45090050574D434F4E4609A3
:101A500000434F4F4C434F4E46090043484F5043BD
:101A60004F4E460900544849474809090054434F1E
:101A70004F4C5448525309005450574D54485253F8
:101A80000900545354455009090054504F574552CA
:101A9000444F574E0900494F494E090900475354D6
:101AA000415409090049484F4C445F4952554E0979
:101AB0000047434F4E4609090009004472697665A4
:101AC00072207265676973746572733A0A007332C3
:101AD00076736209007332767361090031323043E4
:101AE00009003134334309003135304309003135C1
:101AF000374309006F7409006F74707709007332FF
:101B0000676109007332676209006F6C6109006FD9
:101B10006C62090073747374090073675F72657394
:101B2000756C7400445256535441545553007553C8
:101B300074657020636F756E74005374616C6C67AC
:101B400075617264207468727300202D7374617201
:101B5000740900687973746572657369730A202D5E
:101B6000656E640900626C616E6B2074696D65005E
:101B70006F66662074696D650070776D20677261AD
:101B800064206175746F0070776D206F6666736591
:101B900074206175746F0070776D207363616C657C
:101BA000206175746F0070776D207363616C6520C0
:101BB00073756D004F54207072657761726E005BB3
:101BC0006D6D2F735D090050574D207468726573F9
:101BD000682E0074737465700900696E74657270A4
:101BE00009006D73746570730900737465616C74BA
:101BF0006843686F70007673656E736509005057AF
:101C00004D207363616C650043532061637475619B
:101C10006C00486F6C642063757272656E7400525C
:101C2000756E2063757272656E74004D4158206345
:101C3000757272656E7400524D53206375727265D1
:101C40006E74005365742063757272656E7400451E
:101C50006E61626C6564090009007370726561648D
:101C60004379636C6500737465616C746843686F75
:101C7000700020647269766572206D6F64653A0940
:101C8000007370726561644379636C650073746599
:101C9000616C746843686F70002064726976657265
:101CA000206D6F64653A09007370726561644379F1
:101CB000636C6500737465616C746843686F700071
:101CC00020647269766572206D6F64653A090073ED
:101CD00070726561644379636C6500737465616CEF
:101CE000746843686F700020647269766572206D55
:101CF0006F64653A09007370726561644379636C5F
:101D00006500737465616C746843686F700020646B
:101D10007269766572206D6F64653A090020496EBC
:101D200076616C69642065787472756465722000F0
:101D300020496E76616C696420452073746570700B
:101D40006572200020452073746570706572206E86
:101D50006F74207370656369666965640A00313564
:101D6000300035004245443A204D656E64656C2D67
:101D700070617274730052756E617761792057617A
:101D80007463683A204F4E003237350035004532D3
:101D90003A204D656E64656C2D7061727473004DF0
:101DA00061782054656D7000323735004D696E20C2
:101DB00054656D7000350045313A204D656E64659F
:101DC0006C2D7061727473005053550047656E65D9
:101DD0007269630050726F746F636F6C00312E30E4
:101DE000004261756400313135323030004D4B5363
:101DF0002047454E203E3D2076312E3300457874F5
:101E00007275646572730032006D61726C696E6622
:101E1000772E6F7267003344205072696E7465725A
:101E200000323032312D30362D323700322E302E06
:101E3000392E31004D61726C696E00546865726DA7
:101E40006973746F727300426F61726420496E66C9
:101E50006F005072696E74657220496E666F004D36
:101E600061696E0041626F7574205072696E7465AD
:101E70007200436F6E66696775726174696F6E0098
:101E800054656D7065726174757265004D6F74692B
:101E90006F6E0054756E6500496E666F20536372F5
:101EA00065656E0048617264636F646564204465B3
:101EB0006661756C742053657474696E6773204C29
:101EC0006F616465640A00000048420000484200F7
:101ED00000A041000034420000C8410000C8420098
:101EE00000C842F0F7FB4300000C430000FA44E84E
:101EF000030000E803000014000000102700001099
:101F000027000020082046616374002008204D61EE
:101F100078002008204D696E004F6666004F6E0005
:101F20004175746F74656D70005654726176204D02
:101F3000696E00566D696E00566D6178202A0056F4
:101F40006D6178204500566D6178205A00566D61AC
:101F500078205900566D6178205800416D617820D5
:101F60002A00416D6178204500416D6178205A005A
:101F7000416D6178205900416D6178205800412DF4
:101F800054726176656C00412D52657472616374A0
:101F900000416363656C0046696C2E204469612EC4
:101FA000202A0046696C2E204469612E0045206974
:101FB0006E206D6D5E330020436F756E7420583A4D
:101FC0000045320042656400453100626564002CC2
:101FD0002073797374656D2073746F7070656421FC
:101FE000204865617465725F49443A200048656124
:101FF00074696E67204661696C6564004865617448
:10200000696E67206661696C6564004572723A208A
:102010004D415854454D50004D415854454D502068
:10202000747269676765726564004572723A204D23
:10203000494E54454D50004D494E54454D50207425
:10204000726967676572656400202F0000002100D7
:10205000240027002A002D00300033000101000079
:10206000040107010A0100002000230026002900C6
:102070002C002F00320000010000030106010901BD
:1020800000002200250028002B002E003100340023
:1020900002010000050108010B0105050505070502
:1020A00008080808020202020A0A080804040404D4
:1020B0000101010101010101030303030303030300
:1020C000040707070C0C0C0C0C0C0C0C020202028F
:1020D00006060606060606060B0B0B0B0B0B0B0B78
:1020E000010210202008081020401020408002012A
:1020F000020108040201010204081020408080400F
:10210000201008040201800402018040201008040D
:1021100002010804020101020408102040800102AB
:102120000408102040805374657070696E67204DFC
:102130006F646500447269766572204375727265DA
:102140006E7400416476616E6365642053657474D7
:10215000696E6773004261627973746570205A001A
:10216000466C6F77207E00466C6F770046616E206C
:10217000537065656400426564004E6F7A7A6C65E1
:10218000207E005370656564004D61696E004C4FA0
:10219000570048494748004F4B004572726F723AEA
:1021A00020416C6C200020636F6E6E656374696FF4
:1021B0006E2E2E2E200054657374696E6720004CBD
:1021C0004F570048494748004F4B004572726F72A5
:1021D0003A20416C6C200020636F6E6E65637469F9
:1021E0006F6E2E2E2E200054657374696E6720006A
:1021F0004C4F570048494748004F4B004572726F9B
:10220000723A20416C6C200020636F6E6E656374BF
:10221000696F6E2E2E2E200054657374696E6720D0
:10222000004C4F570048494748004F4B00457272D9
:102230006F723A20416C6C200020636F6E6E656394
:1022400074696F6E2E2E2E200054657374696E674C
:1022500020004C4F570048494748004F4B004572FB
:10226000726F723A20416C6C200020636F6E6E6555
:102270006374696F6E2E2E2E200054657374696E20
:10228000672000544D4320434F4E4E454354494F21
:102290004E204552524F520041425300504C410093
:1022A0009C229822436F6F6C646F776E005072654A
:1022B0006865617420240046616E20537065656412
:1022C00000426564004E6F7A7A6C65207E004D6135
:1022D000696E004532004531005A005900580045EA
:1022E00032004531005A0059004F6666004F6E00BB
:1022F0005800544D432044726976657273005374DC
:1023000065616C746843686F7020456E61626C65CE
:1023100064006F70656E005452494747455245440A
:10232000003A20007A5F6D617800795F6D61780016
:10233000785F6D6178005265706F7274696E6720A6
:10234000656E6473746F70207374617475730A00C2
:10235000486F6D696E67204661696C65640024F49E
:10236000D43050C38E20C2A24017828B7011127AD3
:10237000910D816CD90AA861E108C75866076151BF
:1023800043061E4B5D05C145A7041A411104093DD2
:102390009803713931034036DB0265339102D43042
:1023A0005402802E1D02632CEE01752AC501B0284F
:1023B000A001102781018F2564012B244B01E0220D
:1023C0003401AC211F018D200D01801FFC00841EF3
:1023D000ED00971DDF00B81CD200E61BC600201BD5
:1023E000BC00641AB200B219A8000A19A0006A1849
:1023F0009900D117910040178B00B5168400311653
:102400007E00B31579003A157300C7146F00581495
:102410006A00EE1366008813630025135E00C7127E
:102420005B006C12570015125400C111510070115D
:102430004F0021114B00D61049008D104700461067
:10244000440002104200C00F4000800F3E00420FC7
:102450003C00060F3B00CB0E3800930E37005C0E9D
:102460003500270E3400F30D3200C10D3100900D00
:102470003000600D2E00320D2D00050D2C00D90C02
:102480002B00AE0C2900850C29005C0C2700350CB4
:1024900027000E0C2600E80B2400C40B2400A00B20
:1024A00023007D0B23005A0B2100390B2100180B50
:1024B0002000F80A1F00D90A1E00BB0A1E009D0A50
:1024C0001D00800A1D00630A1C00470A1B002C0A1D
:1024D0001B00110A1A00F7091A00DD091900C409C6
:1024E0001900AB091900920917007B09180063094C
:1024F00017004C09160036091600200916000A09B3
:102500001500F5081500E0081400CC081400B80800
:102510001400A4081400900813007D0812006B0832
:10252000130058081200460812003408110023084E
:1025300011001208110001081100F0071000E00757
:102540001000D0071000C0071000B0070F00A1074F
:10255000100091070E0083070F0074070F00650736
:102560000E0057070E0049070E003B070D002E070F
:102570000E0020070D0013070D0006070D00F906D9
:102580000C00ED060D00E0060C00D4060C00C80699
:102590000C00BC060C00B0060C00A4060B0099064B
:1025A0000C008D060B0082060B0077060B006C06F4
:1025B0000B0061060A0057060B004C060A00420693
:1025C0000A0038060A002E060A0024060A001A0627
:1025D0000A001006090007060A00FD050900F405B7
:1025E0000900EB050900E2050900D9050900D0053D
:1025F0000900C7050900BE050900B5050800AD05BD
:102600000800A50509009C050800940508008C0534
:102610000800840508007C050800740508006C05A6
:102620000700650508005D050700560508004E0512
:102630000700470507004005080038050700310579
:1026400007002A050700230507001C0506001605DC
:1026500007000F0507000805060002050700FB0438
:102660000600F5040700EE040600E8040600E20494
:102670000700DB040600D5040600CF040600C904E9
:102680000600C3040600BD040600B7040600B1043A
:102690000500AC040600A6040600A00405009B0487
:1026A000060095040500900406008A0405008504D0
:1026B0000500800406007A04050075040500700416
:1026C00005006B04050066040500610405005C0458
:1026D000050057040500520405004D040500480498
:1026E0000500430405003E0404003A0405003504D7
:1026F0000500300404002C04050027040400230412
:1027000005001E0404001A04040016040500110448
:1027100004000D040400090405000404040000047E
:102720000400FC030400F8030400F4030400F003B5
:102730000400EC030400E8030400E4030400E003E5
:102740000400DC030400D8030400D4030400D00315
:102750000400CC030400C8030300C503030024F4F1
:1027600004D9201BC40C5C0E9804C4095F026507E1
:102770007101F405F900FB04B30048048700C103AC
:1027800069005803550003034500BE023A00840265
:10279000310053022A002902250004022000E4012E
:1027A0001C00C8011900AF01170098011400840132
:1027B0001300710110006101100051010E0043016E
:1027C0000D0036010B002B010B0020010B00150141
:1027D00009000C01090003010800FB000800F300D8
:1027E0000800EB000700E4000600DE000600D80049
:1027F0000600D2000600CC000500C7000500C2009C
:102800000500BD000400B9000400B5000400B100DB
:102810000400AD000400A9000400A5000300A2000C
:1028200003009F0004009B00030098000300950034
:10283000020093000300900003008D0002008B0053
:10284000030088000200860002008400030081006B
:1028500002007F0002007D0002007B000200790080
:10286000020077000100760002007400020072008E
:102870000100710002006F0002006D0001006C0099
:1028800002006A00010069000200670001006600A2
:1028900001006500010064000200620001006100A7
:1028A0000100600001005F0002005D0001005C00AB
:1028B00001005B0001005A000100590001005800AE
:1028C00001005700010056000100550001005400AE
:1028D00001005300000053000100520001005100AC
:1028E0000100500001004F0001004E0000004E00AA
:1028F00001004D0001004C0001004B0000004B00A6
:1029000001004A00010049000100480000004800A1
:10291000010047000100460000004600010045009C
:102920000000450001004400010043000000430096
:10293000010042000000420001004100000041008F
:102940000100400001003F0000003F0001003E0088
:1029500000003E0001003D0000003D0001003C0081
:1029600000003C0000003C0001003B0000003B0078
:1029700001003A0000003A0001003900000039006F
:102980000100380000003800000038000100370066
:10299000000037000100360000003600000036005D
:1029A0000100350000003500000035000100340052
:1029B0000000340000003400010033000000330048
:1029C000000033000100320000003200000032003D
:1029D0000100310000003100000031000100300032
:1029E000000030000000300001002F0000002F0028
:1029F00000002F0000002F0001002E0000002E001C
:102A000000002E0001002D0000002D0000002D0010
:102A100000002D0001002C0000002C0000002C0004
:102A200000002C0001002B0000002B0000002B00F8
:102A300000002B0001002A0000002A0000002A00EC
:102A400000002A00010029000000290000002900E0
:102A500000002900000029000100280000002800D3
:102A600000002800000028000000280001002700C6
:102A700000002700000027000000270000002700BA
:102A800001002600000026000000260000002600AD
:102A900000002600010025000000250000002500A0
:102AA0000000250000002500000025000100240092
:102AB0000000240000002400000024000000240086
:102AC0000100230000002300000023000000230079
:102AD000000023000000230000002300010022006A
:102AE000000022000000220000002200000022005E
:102AF0000000220001002100000021000000210050
:102B00000000210000002100000021000000210041
:102B10000100200000002000000020000000200034
:102B20000000200000002000000020000000200025
:102B300001001F0000001F0000001F0000001F0018
:102B400000001F0000001F0000001F0001001E0009
:102B500000001E0000001E0000001E0000000437E0
:102B600000001E290000511B000058100000100931
:102B70000000CC040000780200004101000054482D
:102B800045524D414C2052554E41574159005468D1
:102B900065726D616C2052756E6177617900566562
:102BA0002D4A65726B00565A2D4A65726B00565954
:102BB0002D4A65726B0056582D4A65726B002A20AB
:102BC00053746570732F6D6D005A20537465707364
:102BD0002F6D6D00592053746570732F6D6D005803
:102BE0002053746570732F6D6D00416476616E6360
:102BF00065642053657474696E6773004D343238B0
:102C00000046696C616D656E740054656D70657227
:102C1000617475726500544D432044726976657223
:102C2000730053746570732F6D6D004A65726B008D
:102C3000416363656C65726174696F6E0056656CA3
:102C40006F636974790053657420486F6D65204F18
:102C500066667365747300436F6E6669677572614B
:102C600074696F6E0000007A4300007A430000A090
:102C700043000020C1000000000000000057617206
:102C80006E696E673A20486F6D696E672042756D98
:102C9000702044697669736F72203C20310A00020B
:102CA00002040000824300007A430000A0430000B9
:102CB000A0400000A040000000403B200020204D2C
:102CC0003930360020204D35363920533100546FCD
:102CD0006F6C2D6368616E67696E673A00543120CE
:102CE0004500543020450044726976657220737443
:102CF000657070696E67206D6F64653A00205431AD
:102D00002045002054302045005374657070657272
:102D1000206472697665722063757272656E743AAA
:102D20000020204D3235302043004C434420436F77
:102D30006E74726173743A002044002049002020B0
:102D40004D3330312050005049442073657474690C
:102D50006E67733A00204600204200204800202081
:102D60004D3134352053004D6174657269616C20BA
:102D700068656174757020706172616D65746572EB
:102D8000733A0020204D323138205400486F74656A
:102D90006E64206F6666736574733A0020204D324E
:102DA0003036205800486F6D65206F666673657415
:102DB0003A0020530020204D32303520420041643B
:102DC00076616E6365643A20423C6D696E5F73653F
:102DD000676D656E745F74696D655F75733E2053D2
:102DE0003C6D696E5F66656564726174653E205412
:102DF0003C6D696E5F74726176656C5F6665656473
:102E0000726174653E20583C6D61785F785F6A65D9
:102E1000726B3E20593C6D61785F795F6A65726BB9
:102E20003E205A3C6D61785F7A5F6A65726B3E2026
:102E3000453C6D61785F655F6A65726B3E0020524C
:102E40000020204D323034205000416363656C65B2
:102E5000726174696F6E2028756E6974732F733296
:102E6000293A20503C7072696E745F616363656CCF
:102E70003E20523C726574726163745F6163636586
:102E80006C3E20543C74726176656C5F616363656F
:102E90006C3E0020204D32303120540020204D3235
:102EA00030312058004D6178696D756D2041636344
:102EB000656C65726174696F6E2028756E697473D4
:102EC0002F7332293A0020450020204D3230332024
:102ED000540020204D3230332058004D6178696D08
:102EE000756D206665656472617465732028756E02
:102EF0006974732F73293A00537465707320706579
:102F00007220756E69743A0020204D3230302053A3
:102F10000020440020204D323030205400204469ED
:102F20007361626C65640A0046696C616D656E74FC
:102F30002073657474696E67733A0020204D3134D4
:102F4000392043203B20556E69747320696E2043FD
:102F5000656C736975730A0020286D6D2900202047
:102F6000473231202020203B20556E697473206940
:102F70006E206D6D00092042616420726573706F70
:102F80006E73652100092042616420726573706F61
:102F90006E73652100092042616420726573706F51
:102FA0006E73652100092042616420726573706F41
:102FB0006E73652100092042616420726573706F31
:102FC0006E7365210000BEEA11241FBECFEFD1E26F
:102FD000DEBFCDBF00E00CBF13E0A0E0B2E0E0E256
:102FE000F8EF01E00BBF02C007900D92AC36B107BD
:102FF000D9F722E1ACE6B3E001C01D92A636B207D4
:10300000E1F717E1C4EED7E100E006C0219701091E
:10301000802FFE010E94D5F8C33ED10780E008074B
:10302000A9F70E942EE20C940EFC0C9400002F9243
:103030003F924F925F926F927F928F929F92AF9248
:10304000BF92CF92DF92EF92FF920F931F93CF9395
:10305000DF93CDB7DEB7CF54D1090FB6F894DEBFFA
:103060000FBECDBF20914A052FAB11E010934A054A
:103070008091AC048D3409F448C2843511F40C9469
:103080008F27873411F00C94B0270091AA04109177
:10309000AB040430110509F466C138F48091C00C0A
:1030A0000230110508F0CFC02AC00A35110509F415
:1030B000B3C150F40531110511F40C94B2270C3151
:1030C000110509F48EC11DC20B35110509F4A8C103
:1030D0000C35110509F015C277E8272E72E0372E5E
:1030E000E1E3EE2EE4E0FE2E44E452E05C8F4B8FF1
:1030F000FEE3CF2EF5E0DF2E00E010E0D1C18330FB
:1031000010F40C94B2270E94C64289E994E00E9410
:10311000ABC08091980483FD5EC0C090A504D090A0
:10312000A604E090A704F090A8048090500290902C
:103130005102A0905202B0905302A5019401C70120
:10314000B6010E9412F2882309F445C0A50194013A
:10315000C701B6010E9414F96B017C0120E030E048
:10316000A9010E943CFB87FF04C0F7FAF094F7F82E
:10317000F094E0917E0534E0E39FF0011124E75DD7
:10318000FD4F2081318142815381C701B6010E94E8
:1031900077F220E030E048E453E40E943CFB18164C
:1031A000D4F40E94AB368DE09AE00E94D831809131
:1031B000A5049091A604A091A704B091A8048093BF
:1031C000500290935102A0935202B093530285EAA9
:1031D00094E00E9459D82AE037ED43E25CE3609125
:1031E00025027091260280912702909128020E9468
:1031F00077F26B017C016091230270912402072E0B
:10320000000C880B990B0E9418F29B01AC01C701BE
:10321000B6010E9477F269837A838B839C83409105
:103220007E05BE016F5F7F4F89E994E00E94A9D0BF
:1032300080E1E9E9F4E0A4E4B2E001900D928A951E
:10324000E1F70C94B227833010F40C94B2273324A6
:1032500033940230110509F0312C0E94C64282E5F8
:103260000E94C585882309F44CC00E948E856B019D
:103270007C0120E030E0A9010E9412F2882311F4C1
:103280000C9428298091440290914502A091460215
:10329000B09147028B8F9C8FAD8FBE8F20914802DB
:1032A0003091490240914A0250914B022F8F38A32E
:1032B00049A35AA38090990490909A04A0909B04EB
:1032C000B0909C0440909D0450909E0460909F0498
:1032D0007090A004A5019401BC01CD010E9412F2DE
:1032E00081110C94C827A30192016F8D78A189A147
:1032F0009AA10E9412F2882311F40C9428290C94AC
:10330000C82789E40E94C585882329F00E948E85FC
:103310006B017C0103C0C12CD12C76018AE40E9490
:10332000C585882311F40C947E280E948E856BA39A
:103330007CA38DA39EA320E030E0A901C701B601C4
:103340000E9412F281110C948C2820E030E0A90137
:103350006BA17CA18DA19EA10E9412F281110C94FF
:103360008C280C94282980E50E94C585882329F0A3
:103370000E944B856B017C0103C0C12CD12C7601CE
:1033800083E50E94C585882361F00E948E8520E038
:1033900030E04AE754E40E9477F20E945EFA6B0143
:1033A0007C010E94C1D580914304811105C060E079
:1033B0008EEE99E00E9406A00E94D343C60ED71E4F
:1033C000E81EF91E0E94D343DC01CB018C199D0934
:1033D000AE09BF09B7FD02C00C94B2270E94F244A7
:1033E000F1CF87E00E9491C081110C944B2C809109
:1033F0003F0490914004A0914104B09142041EE02A
:10340000B695A795979587951A95D1F780FF02C035
:103410000C94B2270C944B2C1092A9040C94B22754
:103420008FE08093A9040C94B2270E948E852B0113
:103430003C01133049F0F6012081318142815381F2
:103440000E9414F92B013C01AB8DBC8D2D913D9157
:103450004D915C91C301B2010E9414F94B015C01D2
:103460002DEB37E346E855EB0E943CFB87FD20C07F
:103470002DEB37E346E855E3C501B4010E9412F293
:103480001816B4F01F5FB4E0EB0EF11CEB8DFC8D51
:103490003496FC8FEB8FF4E0CF0ED11C143039F151
:1034A000D1018D911D010E94C585882359F3BDCF9F
:1034B000133099F0A5019401F70160817181828137
:1034C00093810E9415F9D7016D937D938D939C9301
:1034D0001397812F0E9469DAD5CF40925002509203
:1034E0005102609252027092530201E0CBCF00234E
:1034F00021F080E592E00E9459D80E941EC30C94EE
:10350000B2270E94DF4B0C94B2278091AA049091BD
:10351000AB048A37910511F40C94DA2608F08AC0BE
:103520008936910509F489C208F051C08D3491059E
:1035300009F475C2C8F48231910509F4ADC348F4A9
:103540008230910508F42EC1419709F48BC10C9487
:103550008C278B34910509F449C208F04BC24F9770
:1035600009F494C10C948C278435910509F494C313
:1035700000F58235910509F47FC308F085C38135D4
:10358000910511F00C948C270E9465A50E94D1D55D
:103590000E943EC40E94C88468EE73E080E090E020
:1035A0000E94103060E08AE599E00E9406A00C9429
:1035B000B2278C35910509F4CBC38836910509F4FF
:1035C00032C28535910511F00C948C279CC381374C
:1035D000910509F403C398F48D36910509F428C2C6
:1035E00038F48B36910509F47DC208F43AC2E3C27F
:1035F0008F36910509F494C208F47FC2E2C286377F
:10360000910509F417C560F48337910509F458C48E
:1036100008F44EC48537910509F4F8C40C948C273E
:103620008837910509F440C508F046C50E94ABC330
:103630000C94B2278A3F910511F40C94122608F0DD
:103640004AC08C3C910509F46DC628F58E3B910566
:1036500009F4E6C290F48139910509F434C58B3937
:10366000910509F4E2C28C38910511F00C948C2775
:1036700080E00E941F3C0C94B227893C910509F41C
:10368000F9C58B3C910509F425C6883C910511F0DC
:103690000C948C278CC5893D910509F49DC760F475
:1036A0008E3C910509F485C608F470C6833D9105EA
:1036B00009F4CCC60C948C278C3D910509F4E2C723
:1036C0008D3D910511F40C9483238A3D910511F0F1
:1036D0000C948C2794C78C3A21E0920711F40C9437
:1036E0002A2670F58D3241E0940711F40C9491254F
:1036F00098F48232A1E09A0711F40C9430258C32B0
:10370000B1E09B0711F40C9472258831914011F0BF
:103710000C948C270C94D8238039F1E09F0711F486
:103720000C9427268A3921E0920709F453C28F327C
:10373000914011F00C948C270E94B5370C94B2275D
:10374000873F41E0940711F40C94D226B0F4853FF2
:10375000A1E09A0711F40C94C92610F00C94CF261E
:10376000843F914011F00C948C270E94A8368EE97A
:1037700095E00E94D8310C94B2278A38F3E09F0775
:1037800011F40C94DD26873E23E0920711F40C948B
:103790007E278933924011F00C948C270E94348646
:1037A0000C94B22780E50E94C585882329F00E94E9
:1037B0004B856B017C0103C0C12CD12C760183E5C4
:1037C0000E94C585882361F00E948E8520E030E04C
:1037D0004AE754E40E9477F20E945EFA6B017C0192
:1037E0000E94C1D580912F0490913004009739F048
:1037F00020912E04211108C00E94CA9F05C060E0DC
:103800008BED99E00E9406A010914A0583E0809319
:103810004A0581E08093C30AC114D104E104F10494
:1038200031F00E94D343C60ED71EE81EF91E8091C8
:10383000C30A882311F40C943F2DC114D104E10470
:10384000F10411F40C943B2D0E94D343DC01CB0115
:103850008C199D09AE09BF09B7FF02C00C943B2D1E
:103860000C943F2D80913F0484FF02C00C94462DA0
:103870008091410487FF02C00C94462D8091420440
:10388000837011F00C94462D0C94842D0E94CDC3AE
:103890007B018C0120E831E541E050E00E9438F8DE
:1038A000C9016DE671E00E94AEF84B015C01C801F0
:1038B000B70120E13EE040E050E00E9438F8CA0144
:1038C000B90128E130E040E050E00E9438F8762E5F
:1038D000672EC62ED72E4CE3242E312C412C512C92
:1038E000C801B701A20191010E9438F8F62EE72E17
:1038F000CA01B901A20191010E9438F8CB018E01E1
:103900000F5F1F4F8114910499F0EF92FF927F9304
:103910006F936F927F92BF92AF929F928F9281EB43
:1039200099E09F938F931F930F930E94ACF113C064
:10393000A114B104B1F0EF92FF927F936F936F9255
:103940007F92BF92AF9281EA99E09F938F931F93EA
:103950000F930E94ACF10FB6F894DEBF0FBECDBF3F
:1039600030C0CD2879F0EF92FF927F936F936F92E2
:103970007F9285E999E09F938F931F930F930E9405
:10398000ACF1E9CF892B69F0EF92FF927F936F93AF
:103990008DE899E09F938F931F930F930E94ACF152
:1039A000DACFEF92FF9289E899E09F938F931F936C
:1039B0000F930E94ACF10F900F900F900F900F900B
:1039C0000F9080912E04811103C0C8010E94CA9FEC
:1039D0000E94AB3685EC99E00E94D831C8010E9464
:1039E000A4C68AE00E94EA300C94B2270E941CC44C
:1039F0000C94B22780913D05813011F00C94B227D0
:103A000082E080933D050E94D34360932A04709323
:103A10002B0480932C0490932D040C94B2270E94C5
:103A20003EC40C94B22780E00E947A3E0C94B227E8
:103A300081E00E947A3E0C94B2270E94D285182F12
:103A400087FD0AC086E899E00E94D831812F0E9444
:103A50008E788AE00E94EA30FFA9F0934A050C9420
:103A60002F2F60E080E50E942A8681110C94B227F6
:103A700080913F0480FF09C0E0917E05F0E0E058AE
:103A8000FA4F6081062F10E002C00FEF10E089E4CA
:103A90000E94C585882399F00E946E8590E01816D3
:103AA000190614F481E090E026E0289FF001299F98
:103AB000F00D1124E25EFB4F0481158108C083E5FF
:103AC0000E94C585882319F00E945B858B01B8018F
:103AD0000F3F110519F010F06FEF70E06093800553
:103AE0000C94B22760E080E50E942A8681110C9434
:103AF000B227109280050C94B2278EE40E94C585EF
:103B0000882311F40C94B2270E945B856093C40A49
:103B10007093C50A8093C60A9093C70A0C94B22783
:103B200083E50E94C1B7882331F060E083E50E94FD
:103B30002A86809398040E94AB368FE799E00E9412
:103B4000D831C0909804CC2069F135E7A32E39E034
:103B5000B32E00E010E080E0D12CE12CF12CB70175
:103B6000A601002E04C076956795579547950A944F
:103B7000D2F740FF0EC099249394980E882319F031
:103B80008CE20E94EA30F501859194910E94D8312F
:103B9000892D0F5F1F4F22E0A20EB11C05301105C9
:103BA000F1F604C081E799E00E94D8318AE00E94D2
:103BB000EA300C94B2271092C30A10925D020C9462
:103BC000B22741E060E070E087EE9FE00E94AE36F1
:103BD0000C94B2270E949CC20C94B22783E50E94E9
:103BE000C585882381F00E946E85282F30E02D3313
:103BF000310524F4809354020C94B2278CE3809313
:103C000054020C94B2270E94AB36609154028AE6AB
:103C100099E00E947A368AE00E94EA300C94B2273A
:103C200081E00E941F3C0C94B22783E50E94C58569
:103C3000882311F40C94B2270E946E85182F8D33BF
:103C400008F08CE380934F050E94D3436B017C0105
:103C5000212F30E0A8EEB3E00E9486F8C60ED71EF2
:103C6000E81EF91EC0924B05D0924C05E0924D051E
:103C7000F0924E050C94B2278091A9048F7D80614B
:103C80008093A9040C94B2278091A9048F7E80624E
:103C90008093A9040C94B22783E50E94C5858823EC
:103CA000F1F00E94D3436093BC0C7093BD0C8093E1
:103CB000BE0C9093BF0C0E948E8520E030E04AE756
:103CC00054E40E9477F20E945EFA6093B20C709303
:103CD000B30C8093B40C9093B50C0C94B2278091E4
:103CE0003F0484FF02C00C94922D8091410487FF11
:103CF00002C00C94922D80914204837011F00C94B8
:103D0000922D0C94DB2D83E50E94C1B7882311F41A
:103D10000C94B2270E94D3436093BC0C7093BD0CEB
:103D20008093BE0C9093BF0C0E948E8520E030E003
:103D30004AE754E40E9477F20E945EFA6093B80C5E
:103D40007093B90C8093BA0C9093BB0C0C94B2276F
:103D50000E94D28587FF02C00C94B22790913F0445
:103D600094FD04C09091410497FF23C0F7E82F2EE3
:103D7000F2E03F2EAAECAA2EA3E0BA2E1B8E8D5F96
:103D8000082F10E0C801880F991F880F991FAC01F8
:103D90004E515C4F4A01C801880F991F880F991F27
:103DA000DC01AA50BC4FB8A3AF8F8C010A551C4F41
:103DB0000AC0909142049370C9F6682F81E00E9476
:103DC000CB840C94B227F10181911F010E94C5851B
:103DD000882309F460C0FB8DF33051F00E948E857A
:103DE000D50158966D937D938D939C935B9753C0AB
:103DF0000E948E852B013C0120E030E040EA51E436
:103E00000E9412F287FF41C0A3019201F401608178
:103E10007181828193810E94F1F96B017C019B0188
:103E2000AC016091C6037091C7038091C803909163
:103E3000C9030E9477F26093C6037093C70380930F
:103E4000C8039093C903A7019601AF8DB8A16D91E6
:103E50007D918D919C910E9477F2EF8DF8A1608306
:103E6000718382839383D8016D917D918D919C9113
:103E70000E9416F2A70196010E9477F20E945EFA54
:103E8000F8016083718382839383D4014D925D92A4
:103E90006D927C921397BB8DBF5FBB8FE4E0AE0E3B
:103EA000B11CB43009F08FCF0E94C25B0C94B227D2
:103EB0000E94354A8BEF91E10E94D7AA0C94B22759
:103EC0008CE898E00E94D83160E08CE798E00E948E
:103ED000994260E087E698E00E94994260E080E6BF
:103EE00098E00E94994261E085E598E00E9499423D
:103EF00060E086E498E00E94994261E086E398E001
:103F00000E94994260E08DE298E00E94994261E04F
:103F100083E298E00E94994260E089E198E00E9483
:103F2000994260E082E198E00E94994260E08AE074
:103F300098E00E94994260E08CEF97E00E949942DD
:103F400060E08EEE97E00E94994260E08FED97E08E
:103F50000E94994260E081ED97E00E94994260E002
:103F60008BEB97E00E94994260E08AEA97E00E941A
:103F7000994260E085E997E00E94994260E086E816
:103F800097E00E94994260E08FE797E00E94994293
:103F900060E088E797E00E94994260E08FE697E052
:103FA0000E94994260E08AE597E00E94994260E0B1
:103FB0008CE497E00E94994261E089E397E00E94D7
:103FC000994260E08CE297E00E94994261E087E2CA
:103FD00097E00E94994261E08AE197E00E9499424D
:103FE00060E086E097E00E94994260E083EF96E00F
:103FF0000E94994260E085EA93E00E94B242682FF5
:1040000061708AEE96E00E949942ACC780912F04BD
:1040100090913004009759F0DC012C91222339F063
:1040200020912E0421119EC70E94CA9F9BC70E9407
:10403000C14A98C700912F041091300494E0F12CEC
:1040400040E0915021F1F8018081282F2B7F21340D
:1040500021F421812133D9F407C08035C1F4818155
:1040600080538A3048F013C0813421F0853421F424
:1040700041E002C0FF24F39498012E5F3F4F890175
:104080002F5F3F4FF80180818032C9F3DACF4111B1
:104090000E94AB36FF2021F087EE96E00E94D831D7
:1040A000C8010E94B5425EC781E080933E048093C0
:1040B0003D040E94C2C356C710923E0410923D04B4
:1040C0000E94C2C34FC760E070E083E50E94F6859E
:1040D000823038F00E94A83685EC96E00E94D831F4
:1040E00041C78C01112788E40E94C5858823E1F02F
:1040F0000E946B858A3A910544F00E946B85853059
:10410000914034F40E946B8505C08AEA90E002C0B9
:1041100084E091E026E0209FF001219FF00D112422
:10412000E25EFB4F9183808382E40E94C5858823F1
:10413000D9F00E946B85059744F00E946B858D38FD
:10414000910534F40E946B8505C085E090E002C0C3
:104150008CE890E026E0209FF001219FF00D1124D3
:10416000E25EFB4F9383828386E40E94C5858823A9
:1041700009F4F8C60E946B8597FD09C00E946B8503
:104180008F3F910509F034F40E946B8505C080E0F3
:1041900090E002C08FEF90E026E0209FF001219F89
:1041A000F00D1124E25EFB4F95838483DBC60E94F1
:1041B000D285182F87FDD6C60091A40384E40E94FF
:1041C000C585882311F40C94DE2D0E948E856B0129
:1041D0007C0120E030E0A9010E9412F2882309F45A
:1041E00043C024E01202F0011124E456FC4FC082C7
:1041F000D182E282F38220E030E0A90160919C0349
:1042000070919D0380919E0390919F030E9412F2F2
:1042100081110CC080E090E0A0EEBFE380939C038E
:1042200090939D03A0939E03B0939F0320E030E002
:10423000A9016091A0037091A1038091A2039091C4
:10424000A3030E9412F281110CC080E090E0A0EE66
:10425000BFE38093A0039093A103A093A203B09324
:10426000A30301E00C94DE2D80E08093A4030E9460
:1042700040D578C60E94D28587FD74C677E8C72EE0
:1042800072E0D72EF12CE3E0EE2EE80ED6018D91F0
:104290006D010E94C5858823C1F0B3E0FB1202C006
:1042A0000E2D01C00F2D0E948E85E4E00E9F80012F
:1042B000112406531C4F0E945EFAD8016D937D9322
:1042C0008D939C9313970E946B5BF394B4E0FB1265
:1042D000DDCF48C60E94D28587FD44C657E8E52E4B
:1042E00052E0F52E00E063E0D62ED80EF701819162
:1042F0007F010E94C585882389F0033011F41D2DAC
:1043000001C0102F0E948E8524E0129FF00111241D
:10431000EA50FC4F60837183828393830F5F043084
:1043200029F720C68091400487FF02C00C94E42D39
:10433000809141048E7011F00C94E42D40910A0498
:1043400050910B0460910C0470910D0485EB96E084
:104350000E94803640910E0450910F046091100429
:104360007091110482EB96E00E9480364091120415
:104370005091130460911404709115048FEA96E033
:104380000E9480368AE00E94EA30ECC580913F04AA
:10439000827111F00C942A2E809141048C7811F0D6
:1043A0000C942A2E80914204837011F00C942A2ED2
:1043B000D9C540E9E42E43E0F42E10E088E5810FF2
:1043C0000E94C1B7882359F00E948E85D7016D9352
:1043D0007D938D939C931397812F0E9469DA1F5FC1
:1043E000B4E0EB0EF11C133049F78091410487FDD6
:1043F00084C880914204837009F07FC84091900383
:1044000050919103609192037091930388EA96E032
:104410000E948036409194035091950360919603D9
:104420007091970385EA96E00E9480364091980348
:104430005091990360919A0370919B0382EA96E0F0
:104440000E9480368AE00E94EA308CC540903E058A
:1044500050903F05609040057090410520910B02FF
:1044600030910C0240910D0250910E02C301B20135
:104470000E9415F96B8F7C8F8D8F9E8F80904205E7
:1044800090904305A0904405B090450520910F02FF
:10449000309110024091110250911202C501B401F5
:1044A0000E9415F96F8F78A389A39AA3C09046053F
:1044B000D0904705E0904805F090490520911302FF
:1044C000309114024091150250911602C701B601B5
:1044D0000E9415F96BA37CA38DA39EA320911702C4
:1044E000309118024091190250911A02C301B20191
:1044F0000E9415F92B013C0120911B0230911C02F6
:1045000040911D0250911E02C501B4010E9415F98F
:104510004B015C0120911F02309120024091210249
:1045200050912202C701B6010E9415F96B017C016E
:104530000E94AB3682E996E00E94D83183E50E9462
:10454000C1B7882321F00E947F8580930902809162
:104550000902882319F08AE796E002C086E796E010
:104560000E94D8318AE896E00E94D8314B8D5C8D4C
:104570006D8D7E8D8DE796E00E9480364F8D58A11F
:1045800069A17AA185EA96E00E9480364BA15CA1E0
:104590006DA17EA182EA96E00E94803688E896E0CE
:1045A0000E94D83180E896E00E94D831B301A20180
:1045B0008DE796E00E948036B501A40185EA96E079
:1045C0000E948036B701A60182EA96E00E948036FA
:1045D0008AE00E94EA30C6C48AE50E94C585882325
:1045E00051F00E948E8560938C0370938D038093AD
:1045F0008E0390938F0380E00E943C85B3C40E9499
:10460000D285182F87FDAEC488E50E94C585882312
:1046100061F00E948E852CE01202F0011124EC580A
:10462000FC4F608371838283938389E50E94C585F3
:10463000882361F00E948E853CE01302F001112472
:10464000EC58FC4F64837583868397838AE50E94C8
:10465000C585882361F00E948E854CE01402F0012C
:104660001124EC58FC4F6087718782879387809173
:10467000410487FD77C480914204837009F072C4BD
:104680000C94952E82E40E94C1B7882341F080915A
:10469000230290912402909307028093060282E500
:1046A0000E94C1B7882341F08091060290910702D1
:1046B000909324028093230283E50E94C58588237A
:1046C00031F00E946B8590932402809323028091A5
:1046D0003F0490914004A0914104B0914204892B81
:1046E0008A2B8B2B09F03EC4609123027091240227
:1046F00082E696E00E949F3685E20E94EA308AE0D8
:104700000E94EA302FC40E94D285082F87FD2AC458
:1047100083E50E94C585002E000C110B882369F1EA
:104720000E946B85F801EE0FFF1FEE5FFD4F918336
:104730008083000F111F000F111FF801E75DFD4F6F
:104740007F01BC01990F880B990B0E9418F22AE097
:1047500037ED43E25CE30E9477F2F801E459FC4F45
:1047600020813181428153810E9477F2D7016D937C
:104770007D938D939C931397F5C30E94AB3685E48C
:104780000E94EA3080E3800F0E94EA30000F111F80
:10479000F801EE5FFD4F608171818AE596E00E942D
:1047A0009F3685E20E94EA308AE00E94EA30DAC34E
:1047B00080E50E94C1B7882309F4D4C30E946B85A9
:1047C0008C01892B09F040C183E50E94C1B7882381
:1047D00009F4D1C00E946B856C01019629F48FED1C
:1047E00091E10E946130BEC38091DF11883108F0F1
:1047F000B9C390E0FC01EE0FFF1F8E0F9F1FFC015D
:10480000EA56FE4E808161E08F770E945FAF109282
:10481000E0111092E1118091DF116CE00E9495F897
:10482000ECE08E9FB001112440E050E09B01240F8A
:10483000351FF901EE0FFF1F2E0F3F1FF901EA563A
:10484000FE4E908197FD08C04F5F5F4F4C30510581
:1048500069F790E00E946F307090DF11072D10E033
:104860007801EE0CFF1CF701E00FF11FEA56FE4E37
:1048700080818068808377FC75C3F0E2CF16F2E018
:10488000DF060CF042C08091E11128E532E0281BE0
:10489000310987FD3395220F331F220F331F032E5B
:1048A000000C440B550B8091E01168E870E04B015F
:1048B000881A910887FD9394880C991C880C991C80
:1048C000092C000CAA08BB08D7FC0BC0B601653B3D
:1048D000710514F064EB70E0072E000C880B990B47
:1048E00003C060E070E0CB01281939094A095B096F
:1048F0000E9429F824EB30E040E050E00E945AF892
:10490000820E931EA41EB51E640127E1271560F1D7
:104910002091E01188E890E0821B910927FD939592
:10492000880F991F880F991FC816D90684F0209107
:10493000E11188E592E0821B910927FD9395880F8C
:10494000991F880F991FC816D9060CF4C601029743
:104950002FB7F8940E0D1F1DF801EA56FE4E880F72
:10496000991F928381832FBF6CE271E080E090E019
:104970000E941030F7C20E94AB3660E070E082E522
:1049800096E00E949F368091E11128E532E06901AE
:10499000C81AD10887FDD394CC0CDD1CCC0CDD1CCF
:1049A0000D2C000CEE08FF088091E01128E830E0A3
:1049B0004901881A910887FD9394880C991C880CEA
:1049C000991C092C000CAA08BB088091DF118F3FAD
:1049D000C1F090E0FC01EE0FFF1F8E0F9F1FFC0146
:1049E000EA56FE4E2181328153E0220F331F5A9541
:1049F000E1F764E0369527956A95E1F72E5F3F4F22
:104A000002C020E030E02F5F3F4FC901330FAA0BF7
:104A1000BB0B9C01AD01281939094A095B09A4EBBC
:104A2000B0E00E9476F8A7019601281939094A09D1
:104A30005B090E945AF8B9018FE496E00E949F3604
:104A40008AE00E94EA308EC20E94A836B80188E44B
:104A500096E00E949F3689E396E00E94D83182C298
:104A60008AE50E94C585811105C083E50E94C58540
:104A7000882349F10E948E8520E030E040E050EC30
:104A80000E9412F287FF02C00C94CD2E0E948E85E8
:104A900020E030E040E050E40E943CFB181614F4A3
:104AA0000C94C72E0E948E852091EA033091EB036F
:104AB0004091EC035091ED030E9477F20E9459FA65
:104AC000CB010E94AE4C8091410487FF02C00C9440
:104AD000D32E80914204837011F00C94D32E0E9447
:104AE000AB3640C283E50E94C585882321F00E9431
:104AF0005B858B0102C004E011E080E50E94C58562
:104B0000882349F00E945B85CB016938734128F006
:104B100088E893E102C088EE93E0B8010E942CB5CA
:104B200021C260E085E40E942A86823008F073C0CA
:104B300080E50E94C1B7882351F00E948E85609362
:104B40005B0570935C0580935D0590935E0589E439
:104B50000E94C1B7882381F00E948E852CEA35EC33
:104B600047E25EE30E9477F260935F057093600511
:104B7000809361059093620584E40E94C1B7882305
:104B800081F00E948E852CEA35EC47E25EE30E94BC
:104B9000F1F96093630570936405809365059093C4
:104BA00066050E94AB3640915B0550915C056091B3
:104BB0005D0570915E0583E296E00E9480362CEAE6
:104BC00035EC47E25EE360915F057091600580918E
:104BD0006105909162050E94F1F9AB01BC018FE182
:104BE00096E00E9480362CEA35EC47E25EE3609165
:104BF00063057091640580916505909166050E943A
:104C000077F2AB01BC018BE196E00E9480368AE02E
:104C10000E94EA30A7C10E94A83687E296E00E946F
:104C2000D831A0C183E40E94C1B7882321F00E943B
:104C30006B850E94AD6E60910002709101028CE064
:104C400096E00E949F368AE00E94EA308BC10E9463
:104C5000C1D588C187E00E9491C0AE014F5F5F4F10
:104C60001A018823D1F182FF03C041E653E002C05C
:104C700046E653E081FF03C023E633E002C026E6A8
:104C800033E080FF03C085E693E002C086E693E050
:104C90005F934F933F932F939F938F938FEA95E06A
:104CA0009F938F933F922F920E94ACF10E94AB365C
:104CB000C1010E94B5420FB6F894DEBF0FBECDBF52
:104CC00080912E04811103C0C1010E94CA9F0FB6BA
:104CD000F894DEBF0FBECDBF45C100E016E0A4E4EE
:104CE000B2E0BC8FAB8F3DEFC32E35E0D32E7A01FF
:104CF000F8016591759185919491EB8DFC8D819072
:104D00009190A190B190FC8FEB8FA50194010E942E
:104D100014F92B013C01D7016D937D938D939C93E6
:104D2000139720E030E040EA51EC0E943CFB87FD05
:104D30000AC020E030E040EA51E4C301B2010E9421
:104D400012F2181634F4F6018491181614F40C9427
:104D5000DA2ED7018D909D90AD90BD907D0120E021
:104D600030E040EA51ECC501B4010E943CFB87FFF2
:104D700002C00C94E62E20E030E040EA51E4C50188
:104D8000B4010E9412F2181614F00C94F82E0C9430
:104D9000E62E0E94189280E00E9499DBE3C00E94F8
:104DA0001892E0C061E083E50E940A8781270E9493
:104DB00099DBD8C00E941D87D5C060E089E40E94BD
:104DC0002A86D82E97E8A92E92E0B92EFF24F394D4
:104DD000E12C60E070E0D5018D915D010E94F685C7
:104DE0008C01009709F441C0B2E0EB16D1F0E3E08A
:104DF000EE1609F1F1E0EF1651F0D11035C09093A5
:104E0000941180939311BC0180E691E12BC0D110E5
:104E10002BC090935E1180935D11BC018AE291E1F9
:104E200021C0D11021C09093281180932711BC017B
:104E300084EF90E117C00E94038687FD93C088230A
:104E400051F0813089F41093BC100093BB10B8016D
:104E500088E890E107C01093F2100093F110B801B8
:104E60008EEB90E10E944E7EF12CE39424E0E2125E
:104E7000B0CFFF2009F476C00E94C58460919311E1
:104E80007091941184E495E00E9472368AE00E9449
:104E9000EA300E94C28460915D1170915E1186E5D6
:104EA00095E00E9472368AE00E94EA300E94BF8438
:104EB000609127117091281188E695E00E94723662
:104EC0008AE00E94EA300E94BC846091F1107091E7
:104ED000F2108AE795E00E9472368AE00E94EA307A
:104EE0000E94B6846091BB107091BC108CE895E074
:104EF0000E9472368AE00E94EA3034C083E08093D8
:104F0000C00C10922E0460E083E50E940A87811194
:104F100029C00E94D64026C00E94DF4B23C01091BA
:104F2000AA040E94D3436093BC0C7093BD0C809381
:104F3000BE0C9093BF0C212F012E000C330B8091DF
:104F40007E0590E02817390729F060E083E50E948C
:104F50000A8701C081E0682F812F0E94DB7502C0A3
:104F60000E94DF4BE0912C0B31E6E39FF00111240E
:104F7000E257F44F8081811107C081E495E00E94DF
:104F8000D8318AE00E94EA304FA940934A0567C7AA
:104F900020E030E0A901C701B6010E9412F2881F8B
:104FA0008827881F381609F4A4C080E090E0A0E8A4
:104FB000BFEB8BA39CA3ADA3BEA32B8D3C8D4D8DCE
:104FC0005E8DC501B4010E9414F920E030E040E09C
:104FD0005FE30E9477F26B8F7C8F8D8F9E8F2F8D7A
:104FE00038A149A15AA1C301B2010E9414F920E0DD
:104FF00030E040E05FE30E9477F26F8F78A389A3EF
:105000009AA32B8D3C8D4D8D5E8DCA01B9010E94F6
:1050100077F24B015C012F8D38A149A15AA1CA0139
:10502000B9010E9477F29B01AC01C501B4010E9455
:1050300015F90E9482FB4B015C019B01AC01C70189
:10504000B6010E9414F92B013C01A5019401C7018E
:10505000B6010E9415F99B01AC01C301B2010E9487
:1050600077F26B017C0120E030E0A9010E943CFB5B
:1050700087FD07C0C701B6010E9482FB2B013C01DE
:1050800003C0412C512C32016F8D78A189A19AA1C6
:105090009058A50194010E94F1F92BA13CA14DA1CA
:1050A0005EA10E9477F2A30192010E9477F22B8DFC
:1050B0003C8D4D8D5E8D0E9415F96B017C01A50123
:1050C00094016B8D7C8D8D8D9E8D0E94F1F92BA1AD
:1050D0003CA14DA15EA10E9477F2A30192010E9422
:1050E00077F22F8D38A149A15AA10E9415F90C948D
:1050F000971980E090E0A0E8BFE35BCF20E030E0CC
:10510000A901C701B6010E9412F2882309F4A0C0C8
:105110001BA21CA21DA21EA2A701960150582B8FF4
:105120003C8F4D8F5E8F8BA19CA1ADA1BEA1B058CD
:105130008F8F98A3A9A3BAA3CA01B9010E9477F2DD
:105140004B015C012F8D38A149A15AA1CA01B901B7
:105150000E9477F29B01AC01C501B4010E9415F9D0
:105160000E9482FB6BA77CA78DA79EA7809044021C
:1051700090904502A0904602B0904702A701960188
:10518000C501B4010E9415F968AF79AF8AAF9BAF32
:10519000409048025090490260904A0270904B0241
:1051A0002BA13CA14DA15EA1C301B2010E9415F942
:1051B0006CAF7DAF8EAF9FAFC0909904D0909A0432
:1051C000E0909B04F0909C0420919D0430919E04FB
:1051D00040919F045091A0042FA338A749A75AA734
:1051E000A7019601C501B4010E9414F94B015C01AD
:1051F0002DEB37E346E855EB0E943CFB87FD2FC0C3
:105200002DEB37E346E855E3C501B4010E9412F2E5
:1052100018162CF12FA138A549A55AA5C301B20132
:105220000E9414F94B015C012DEB37E346E855EB86
:105230000E943CFB87FD13C02DEB37E346E855E3A6
:10524000C501B4010E9412F218160CF0AFC007C0DD
:105250000E94A83687EF99E00E94D83183CE28AD0E
:1052600039AD4AAD5BADC701B6010E9414F96B01BF
:105270007C012CAD3DAD4EAD5FAD6FA178A589A58C
:105280009AA50E9414F94B015C01A70196016B8D50
:105290007C8D8D8D9E8D0E9477F22B013C01A501A6
:1052A00094016F8D78A189A19AA10E9477F29B0148
:1052B000AC01C301B2010E9415F92B013C01A5010B
:1052C00094016B8D7C8D8D8D9E8D0E9477F24B01AC
:1052D0005C01A70196016F8D78A189A19AA10E9416
:1052E00077F29B01AC01C501B4010E9414F9A3013E
:1052F00092010E9488F96B017C0120E030E0A90155
:105300000E9412F2882309F4B2C220E030E0A90121
:10531000C701B6010E9412F2082E000C990B8827D3
:10532000990F881F9927880F991F8329813091052C
:1053300059F0029799F42BED3FE049EC50E4C70196
:10534000B6010E9415F908C02BED3FE049EC50E48E
:10535000C701B6010E9414F96B017C0120E030E026
:10536000A901C701B6010E943CFB4601570187FF16
:1053700004C0B7FAB094B7F8B09420E030E040EC45
:1053800051E4C501B4010E9477F22BED3FE049ECF6
:1053900050E40E94F1F90E94DBF90E945EFA1B01C1
:1053A000672BA9F422242394312C11C0B8E12B2EB1
:1053B000312C8BED882E8FE0982E89ECA82E80E47E
:1053C000B82E0230110509F45DC275016401209107
:1053D0004C0230914D0240914E0250914F022FA746
:1053E00038AB49AB5AAB6091A1047091A204809193
:1053F000A3049091A4040E9414F92B013C01A5017F
:1054000094016BA57CA58DA59EA50E9477F25B01FA
:105410008C0120E030E0A901C301B2010E9412F228
:105420008823C1F09501A801B501C8010E9477F257
:105430004B015C01A3019201C301B2010E9477F20A
:105440009B01AC01C501B4010E9415F90E9482FBC9
:105450005B018C012FE632E143E85AE3B501C80154
:105460000E9412F287FD03C28091A5049091A604C8
:10547000A091A704B091A8048BAB9CABADABBEAB25
:1054800020915002309151024091520250915302AA
:1054900024962CAF3DAF4EAF5FAF24972AE037ED97
:1054A00043E25CE36091250270912602809127021D
:1054B000909128020E9477F26FA378A789A79AA7F4
:1054C0006091230270912402072E000C880B990B27
:1054D0000E9418F29B01AC016FA178A589A59AA53D
:1054E0000E9477F26F8B788F898F9A8FB501C801F0
:1054F0000E948AFA0E945EFA7CA76BA76215730568
:1055000010F43CA62BA6ABA5BCA5BD0180E090E0A5
:105510000E9416F24B015C019B01AC01C701B60170
:105520000E94F1F96FA378A789A79AA79B01AC0104
:105530000E9477F26B017C019B01AC016FA178A501
:1055400089A59AA50E9477F220E030E040EC50E473
:105550000E94F1F99B01AC016FA178A589A59AA5DC
:105560000E9414F928966CAF7DAF8EAF9FAF28973D
:1055700020E030E040E05FE3C701B6010E9477F22F
:105580009B01AC0160E070E080E89FE30E9414F9A9
:105590002C966CAF7DAF8EAF9FAF2C97A501940179
:1055A000C301B2010E94F1F960966CAF7DAF8EAF7E
:1055B0009FAF609724962CAD3DAD4EAD5FAD249767
:1055C0006BA97CA98DA99EA90E9414F9A50194013B
:1055D0000E94F1F96BAB7CAB8DAB9EAB2FA538A9CC
:1055E00049A95AA929873A874B875C8724968CADAD
:1055F0009DADAEADBFAD24978D879E87AF87B88B2D
:105600000E94D3439B01AC0128533F4F4F4F5F4F44
:105610002FA738AB49AB5AAB4B8C5C8C6D8C7E8C16
:1056200001E010E099E1392E4BA55CA504171507A0
:1056300008F0FEC00E946AA70E94D343DC01CB01A0
:105640002FA538A949A95AA9821B930BA40BB50B06
:10565000B7FD0EC00E94D3439B01AC0128533F4FBE
:105660004F4F5F4F2FA738AB49AB5AAB0E94F24464
:105670003A94332009F445C02F8D38A149A15AA18D
:105680002C966CAD7DAD8EAD9FAD2C970E9477F2C0
:105690006B017C019201A30128966CAD7DAD8EADAE
:1056A0009FAD28970E9477F2A70196010E9415F9F5
:1056B0007B016C019201A3012C966CAD7DAD8EAD8A
:1056C0009FAD2C970E9477F24B015C012F8D38A182
:1056D00049A15AA128966CAD7DAD8EAD9FAD28979E
:1056E0000E9477F29B01AC01C501B4010E9414F93C
:1056F0002B013C01C701D6018F8F98A3A9A3BAA3A0
:105700004DC0B80180E090E00E9416F22FA138A5AC
:1057100049A55AA50E9477F24B015C010E94EEF95F
:105720006B017C01C501B4010E9478FB4B015C0157
:10573000A70196016B8D7C8D8D8D9E8D0E9477F2D9
:105740002B013C012BA13CA14DA15EA1C501B401DF
:105750000E9477F2A30192010E9415F92B013C01EE
:10576000A50194016B8D7C8D8D8D9E8D0E9477F2AD
:105770004B015C012BA13CA14DA15EA1C701B6016B
:105780000E9477F29B01AC01C501B4010E9414F99B
:105790006F8F78A389A39AA389E1382E9201A30180
:1057A00068AD79AD8AAD9BAD0E9415F969837A83A6
:1057B0008B839C832F8D38A149A15AA16CAD7DADFF
:1057C0008EAD9FAD0E9415F96D837E838F83988780
:1057D00060962CAD3DAD4EAD5FAD609769857A8525
:1057E0008B859C850E9415F969877A878B879C87B2
:1057F0002BA93CA94DA95EA96D857E858F859889C9
:105800000E9415F96D877E878F87988BCE01019650
:105810000E94ABC040917E05BE01695E7F4FCE0104
:1058200001960E94A9D0882319F00F5F1F4FFCCE6C
:1058300080E1E9E9F4E0DE01119601900D928A958C
:10584000E1F7CE0101960E94ABC040917E05BE01FA
:10585000695E7F4FCE0101960E94A9D080E1FE01D2
:105860003196A4E4B2E001900D928A95E1F70E948E
:10587000D3436093BC0C7093BD0C8093BE0C90938B
:10588000BF0C70CBABEDCA2EAFE0DA2EA9ECEA2E3E
:10589000A0ECFA2E9CCD0E94C1D510920A020E9463
:1058A000D3436093BC0C7093BD0C8093BE0C90935B
:1058B000BF0CC0907E0561E080E00E94DB758091A6
:1058C000250290912602A0912702B0912802809390
:1058D000AF049093B004A093B104B093B20480914C
:1058E0002302909124029093AE048093AD0484E649
:1058F00090E0909324028093230281E080933E0401
:105900000E94C2C340913F04509140046091410401
:10591000709142048A019B01E9E13695279517951C
:105920000795EA95D1F7DB01CA01F7E1B695A7958E
:1059300097958795FA95D1F78170972F9170891374
:1059400095C0402F4170481391C0BB24B394DD240F
:10595000D39482E00E9489DA82E50E94C58588237B
:1059600079F00E948E85762E872E982EA92E20E023
:1059700030E0A9010E9412F2882309F445C006C054
:10598000712C812CA0EA9A2EB0E4AB2ED11003C06A
:10599000BB2009F443C0E0904C02F0904D0200910E
:1059A0004E0210914F02272D382D492D5A2DB70147
:1059B000C8010E943CFB181624F0E72CF82C092D96
:1059C0001A2D80E090E0A0EFB1E48F8B988FA98F23
:1059D000BA8F20E030E040EA53E4B701C8010E94EA
:1059E00012F287FD04C0E12CF12C00EA13E4C70198
:1059F000D80189839A83AB83BC83BE01695E7F4FE4
:105A0000CE0101960E947EC2DD2019F080E00E9446
:105A100089DABB2019F081E00E9489DA0E940F4ADE
:105A200080913D0480933E048091AF049091B00436
:105A3000A091B104B091B204809325029093260204
:105A4000A0932702B09328028091AD049091AE04F8
:105A5000909324028093230261E08C2D0E94DB75D9
:105A600083E0809308020E941EC37CCAD82EB92E00
:105A700000FD6FCF71CF0E94F2440C94171C10925E
:105A8000C30A10934A050E94C14A6CCA80913F0420
:105A900090914004A0914104B091420437E1B69541
:105AA000A795979587953A95D1F780FD5F98809156
:105AB000420480FD8A9880913F0490914004A09117
:105AC0004104B091420469E1B695A79597958795F1
:105AD0006A95D1F780FF05C080910801817080939D
