:100000000C94A5150C94D6150C94D6150C94D615F5
:100010000C94D6150C94D6150C94D6150C94D615B4
:100020000C94D6150C9400B50C9400B50C9400B546
:100030000C94D6150C94927F0C94D6150C94D6156E
:100040000C94D6150C94E2940C94D6150C94D615F9
:100050000C94D6150C94D6150C9453880C947FBC34
:100060000C94D6150C9462780C9458780C94D61590
:100070000C94D6150C94D6150C94D6150C94D61554
:100080000C9448660C94D6150C94D6150C94D61581
:100090000C945A800C9431800C94D6150C94D6157F
:1000A0000C94D6150C94D6150C941A660C94D6158F
:1000B0000C94D6150C94D6150C94D6150C94D61514
:1000C0000C94D6150C94D6150C94D6150C94D61504
:1000D0000C94D6150C94D6150C94D6150C94D615F4
:1000E0000C94D615084AD73B3BCE016E84BCBFFDAD
:1000F000C12F3D6C74319ABD56833DDA3D00C77FF8
:1001000011BED9E4BB4C3E916BAAAABE0000008090
:100110003F05A84CCDB2D44EB93836A9020C50B91F
:10012000918688083CA6AAAA2ABE000000803F004B
:100130004E414E494E495459494E46CDCCCC3D0ACC
:10014000D7233C17B7D13877CC2B329595E6241FAF
:10015000B14F0A000020410000C84200401C462068
:10016000BCBE4CCA1B0E5AAEC59D7400407A10F33B
:100170005A00A0724E18090010A5D4E80000E876D5
:1001800048170000E40B54020000CA9A3B0000002C
:10019000E1F505000080969800000040420F000045
:1001A00000A08601000000102700000000E8030006
:1001B0000000006400000000000A000000000001D0
:1001C00000000000002C76D888DC674F0823DFC1D0
:1001D000DFAE59E1B1B796E5E3E453C63AE651998B
:1001E0007696E8E6C28426EB898C9B62ED407C6FB4
:1001F000FCEFBC9C9F40F2BAA56FA5F490055A2A6B
:10020000F75C936B6CF9676DC11BFCE0E40D47FE76
:10021000F520E6B500D0ED902E030094357705006B
:1002200080841E080000204E0A000000C80C3333F2
:1002300033330F986E12831141EF8D2114893BE601
:100240005516CFFEE6DB18D1844B381BF77C1D908A
:100250001DA4BBE424203284725E228100C9F124F3
:10026000ECA1E53D271FE020102310249010A011E1
:10027000202210241037B00840048003001FE02023
:1002800010211023101520112021102110313008C9
:1002900040048003001FE03FF03CF03B701F601EF5
:1002A000E03DF03BF038700FC0078003001FE03FD7
:1002B000F03EF03CF01AE01EE03EF03EF03EF00F63
:1002C000C00780030041425300504C4100506C6510
:1002D000617365205265736574005052494E5445F0
:1002E000522048414C5445440025533A20255300A0
:1002F0004B494C4C45442E20005072696E74657217
:100300002068616C7465642E206B696C6C282920F0
:1003100063616C6C6564210A006563686F3A00452F
:1003200072726F723A0066616C7365007472756503
:1003300000092042616420726573706F6E736521DD
:1003400000092042616420726573706F6E736521CD
:1003500000303D2E33323500313D2E3138006D6195
:1003600078002F3331002F3331002F333100303DEF
:100370002E33323500313D2E3138006D6178002F3B
:100380003331002F3331002F333100204D393220EB
:100390005400204D39322058004452565F53544186
:1003A000545553090050574D5F5343414C45090084
:1003B00050574D434F4E460900434F4F4C434F4E0D
:1003C00046090043484F50434F4E460900544849A0
:1003D000474809090054434F4F4C544852530900B1
:1003E0005450574D544852530900545354455009E2
:1003F000090054504F574552444F574E0900494F3A
:10040000494E090900475354415409090049484FCE
:100410004C445F4952554E090047434F4E46090927
:1004200000090044726976657220726567697374A9
:100430006572733A0A00733276736209007332761A
:10044000736109003132304309003134334309000C
:100450003135304309003135374309006F740900E5
:100460006F747077090073326761090073326762D5
:1004700009006F6C6109006F6C620900737473741A
:10048000090073675F726573756C7400445256534C
:10049000544154555300755374657020636F756EE5
:1004A00074005374616C6C67756172642074687257
:1004B0007300202D73746172740900687973746518
:1004C00072657369730A202D656E640900626C6140
:1004D0006E6B2074696D65006F66662074696D656A
:1004E0000070776D2067726164206175746F0070B1
:1004F000776D206F6666736574206175746F007028
:10050000776D207363616C65206175746F0070771F
:100510006D207363616C652073756D004F5420709E
:1005200072657761726E005B6D6D2F735D090050AF
:10053000574D207468726573682E0074737465700B
:100540000900696E7465727009006D73746570736B
:100550000900737465616C746843686F700076732A
:10056000656E7365090050574D207363616C6500BB
:1005700043532061637475616C00486F6C64206341
:10058000757272656E740052756E20637572726555
:100590006E74004D41582063757272656E7400521E
:1005A0004D532063757272656E74005365742063D9
:1005B000757272656E7400456E61626C65640900E7
:1005C000416464726573730900090020496E7661A5
:1005D0006C696420657874727564657220002049C6
:1005E0006E76616C69642045207374657070657205
:1005F000200020452073746570706572206E6F74E2
:10060000207370656369666965640A004361703AC6
:100610000020573A00436F6F6C696E672E2E2E00D4
:1006200048656174696E672E2E2E0045256320256E
:10063000530020573A0042656420436F6F6C696E27
:10064000672E2E2E004265642048656174696E67CE
:100650002E2E2E0023646566696E65204445464152
:10066000554C545F004B6420004B6920004B7020B8
:1006700000504944204175746F74756E6520666939
:100680006E697368656421205075742074686520F4
:100690006C617374204B702C204B6920616E642058
:1006A0004B6420636F6E7374616E74732066726F37
:1006B0006D2062656C6F7720696E746F20436F6E7A
:1006C00066696775726174696F6E2E680A005049B9
:1006D00044204175746F74756E65206661696C6540
:1006E00064212074696D656F75740A005049442057
:1006F0004175746F74756E65206661696C656421FF
:100700002054656D706572617475726520746F6FC9
:1007100020686967680A00204B643A2000204B6912
:100720003A2000204B703A200020436C61737369BB
:100730006320504944200A002054753A2000204B81
:10074000753A2000206D61783A2000206D696E3A7C
:10075000200020643A200020626961733A20005032
:100760004944204175746F74756E652073746172AD
:10077000740A00504944204175746F74756E652089
:100780006661696C6564212054656D706572617481
:1007900075726520746F6F20686967680A00504938
:1007A00044204175746F74756E65206661696C656F
:1007B0006421204261642068656174657220696407
:1007C0000A00504944204175746F74756E65004588
:1007D00072723A207574663820666F6E74206E6F80
:1007E0007420696E697469616C697A65642E00456C
:1007F00072723A207574663820666F6E74206E6F60
:100800007420696E697469616C697A65642E00454B
:1008100072723A207574663820666F6E74206E6F3F
:100820007420696E697469616C697A65642E00FF71
:10083000E0FFD140A0C8A6A22FF80023AC00AF1063
:10084000FFFEFF05FFD0FFE0FFC1FFD1E240A0C8DF
:10085000A6A22FF800238127AC00AFFFD0FF64FFD2
:10086000D1A5FFD0FF64FF64FFD1A4FFD0FF16FF26
:10087000FE42656400456E636C6F7375726500209F
:100880002020202020200020202020007D02650242
:10089000AD0295023FFFF038007030FC3020FC10B4
:1008A0002078102030102C00D02E31D02F7BD02F6C
:1008B0007BD02E31D02C00D020301020781020FC9E
:1008C0001030FC303800703FFFF03FFFF038007010
:1008D0003186302387102787902F87D02F03D02091
:1008E00030102078102078102030102F03D02F8760
:1008F000D02787902387103186303800703FFFF073
:100900001FFFF81FFFF8041040020820020820040F
:100910001040082080104100104100082080041081
:10092000400000001FFFF81FFFF846696C2E2044AE
:1009300069612E202A0046696C2E204469612E00D0
:100940004520696E206D6D5E33002008204661638E
:1009500074002008204D6178002008204D696E0049
:100960004F6666004F6E004175746F74656D700060
:100970005654726176204D696E00566D696E005650
:100980006D6178202A00566D6178204500566D61B2
:1009900078205A00566D6178205900566D61782094
:1009A0005800416D6178202A00416D617820450032
:1009B000416D6178205A00416D6178205900416D88
:1009C0006178205800412D54726176656C00412D8C
:1009D0005265747261637400416363656C005665AF
:1009E0002D4A65726B00565A2D4A65726B00565936
:1009F0002D4A65726B0056582D4A65726B002A208D
:100A000053746570732F6D6D005A20537465707345
:100A10002F6D6D00592053746570732F6D6D0058E4
:100A20002053746570732F6D6D00416476616E6341
:100A300065642053657474696E6773004D34323891
:100A40000046696C616D656E740054656D70657209
:100A5000617475726500544D432044726976657205
:100A6000730053746570732F6D6D004A65726B006F
:100A7000416363656C65726174696F6E0056656C85
:100A80006F636974790053657420486F6D65204FFA
:100A900066667365747300436F6E6669677572612D
:100AA00074696F6E005A20526169736500326E641A
:100AB000204E6F7A7A6C65205A00326E64204E6F39
:100AC0007A7A6C65205900326E64204E6F7A7A6CA7
:100AD00065205800426564004E6F7A7A6C65004666
:100AE000616E20537065656400436F6E666967755B
:100AF000726174696F6E00526573746F7265204421
:100B0000656661756C747300507265686561742008
:100B10002420436F6E66004C434420436F6E747212
:100B200061737400546F6F6C204368616E67650079
:100B3000546F6F6C204F6666736574730041647602
:100B4000616E6365642053657474696E6773004DEC
:100B500061696E003135300035004245443A204D20
:100B6000656E64656C2D70617274730052756E6190
:100B70007761792057617463683A204F4E003237AD
:100B80003500350045323A204D656E64656C2D7038
:100B900061727473004D61782054656D7000323756
:100BA00035004D696E2054656D7000350045313A51
:100BB000204D656E64656C2D7061727473005053C6
:100BC000550047656E657269630050726F746F639C
:100BD0006F6C00312E300042617564003131353266
:100BE0003030004D4B532047454E203E3D2076315E
:100BF0002E33004578747275646572730032006D2F
:100C000061726C696E66772E6F7267003344205094
:100C100072696E74657200323032312D30362D3289
:100C20003700322E302E392E31004D61726C696ED4
:100C300000546865726D6973746F727300426F61FE
:100C4000726420496E666F005072696E746572201E
:100C5000496E666F004D61696E0041626F75742068
:100C60005072696E74657200436F6E666967757263
:100C70006174696F6E0054656D7065726174757230
:100C800065004D6F74696F6E0054756E6500496E36
:100C9000666F2053637265656E0045787472756483
:100CA0006572202A004D6F74696F6E00446973612C
:100CB000626C65205374657070657273004D3834D2
:100CC000004175746F20486F6D6500473238004DE4
:100CD00061696E0050726568656174202420416C02
:100CE0006C0050726568656174202420456E642034
:100CF0007E0050726568656174202420426564003E
:100D0000507265686561742024207E0054656D70A2
:100D10006572617475726500C902C502436F6F6CBC
:100D2000646F776E005072656865617420240046B8
:100D3000616E20537065656400426564004E6F7A91
:100D40007A6C65207E004D61696E00453200453148
:100D5000004532004F6666004F6E00453100544D2D
:100D600043204472697665727300537465616C74D4
:100D70006843686F7020456E61626C6564005374EF
:100D8000657070696E67204D6F64650044726976A6
:100D900065722043757272656E7400416476616E8F
:100DA0006365642053657474696E677300426162A1
:100DB0007973746570205A00466C6F77207E004608
:100DC0006C6F770046616E20537065656400426504
:100DD00064004E6F7A7A6C65207E0053706565649E
:100DE000004D61696E006F70656E0054524947474F
:100DF00045524544003A20007A5F6D617800795F82
:100E00006D617800785F6D6178005265706F727403
:100E1000696E6720656E6473746F7020737461749B
:100E200075730A0000007A4300007A430000A04373
:100E3000000020C100000000000000005761726E39
:100E4000696E673A20486F6D696E672042756D70F4
:100E50002044697669736F72203C20310A000202D7
:100E6000040000824300007A430000A0430000A079
:100E7000400000A04000000040000C0F00FE0702F0
:100E80002503BB017FFE08FE08FE050808060000DA
:100E900040F0C88888987810050808060000C0F857
:100EA0008888888888F80505050600012030F83014
:100EB000200508080600002070F820202020E0050A
:100EC00009090600FF2070A8A8B8888870200705C7
:100ED00005070001D86C366CD80509090600FFF833
:100EE000A88888888888A8F8050A0A0600FE205085
:100EF00050505088A8A8887003030306000340A040
:100F000040FFFFFFFFFFFFFFFFFFFFFFFFFFFFFFB0
:100F1000FFFFFFFFFFFFFF0000000605FF010707BF
:100F200006020080808080800080030303060105A4
:100F3000A0A0A005060606000050F85050F8500585
:100F400009090600FF2070A8A07028A870200507D6
:100F500007060000C8C8102040989805070706003B
:100F60000040A0A040A8906801030306020580800D
:100F7000800309090601FF20404080808040402016
:100F80000309090601FF80404020202040408005E1
:100F9000070706000020A8702070A8200505050698
:100FA00000012020F820200203030601FFC040803A
:100FB000050101060003F8020202060100C0C00597
:100FC00007070600000810102040408005070706AC
:100FD0000000708898A8C8887003070706010040C1
:100FE000C040404040E00507070600007088081038
:100FF0002040F8050707060000F808103008887040
:1010000005070706000010305090F810100507077C
:10101000060000F880F00808887005070706000041
:10102000304080F0888870050707060000F8081037
:101030001020202005070706000070888870888827
:1010400070050707060000708888780810600205A0
:1010500005060100C0C000C0C00206060601FFC0B0
:10106000C000C040800305050601012040804020EB
:10107000050303060002F800F803050506010180D8
:1010800040204080050707060000708810202000DF
:10109000200507070600007088B8A8B8807005070B
:1010A00007060000708888F888888805070706000A
:1010B00000F04848704848F00507070600007088AF
:1010C0008080808870050707060000F0484848487F
:1010D00048F0050707060000F88080F08080F805DA
:1010E0000707060000F88080F0808080050707066B
:1010F00000007088808098887005070706000088C7
:101100008888F8888888030707060100E040404087
:101110004040E005070706000038101010109060EE
:101120000507070600008890A0C0A0908805070763
:10113000060000808080808080F805070706000098
:1011400088D8A8888888880507070600008888C886
:10115000A89888880507070600007088888888880E
:1011600070050707060000F08888F080808005077A
:101170000706000070888888A890680507070600A1
:1011800000F08888F0A090880507070600007088A6
:101190008070088870050707060000F820202020CE
:1011A0002020050707060000888888888888700541
:1011B0000707060000888888885050200507070622
:1011C000000088888888A8A85005070706000088BE
:1011D000885020508888050707060000888850201E
:1011E000202020050707060000F80810204080F89E
:1011F0000309090601FFE080808080808080E0058F
:101200000707060000804040201010080309090667
:1012100001FFE020202020202020E005030306001D
:10122000052050880501010600FEF80303030601AE
:1012300005804020050505060000700878887805BF
:1012400007070600008080F0888888F005050506FD
:101250000000708080887005070706000008087885
:10126000888888780505050600007088F08070057C
:101270000707060000304840E040404005070706E9
:1012800000FE7088888878087005070706000080CF
:1012900080F0888888880307070601004000C04066
:1012A0004040E00409090601FE1000301010101043
:1012B000906005070706000080808890E090880312
:1012C0000707060100C04040404040E00505050614
:1012D0000000D0A8A8A8A8050505060000B0C88889
:1012E000888805050506000070888888700507074E
:1012F0000600FEF0888888F080800507070600FE5B
:1013000078888888780808050505060000B0C88038
:10131000808005050506000078807008F005070745
:101320000600002020F820202018050505060000F2
:1013300088888898680505050600008888885020F8
:101340000505050600008888A8A8500505050600C3
:101350000088502050880507070600FE88888850BE
:10136000204080050505060000F8102040F803091C
:10137000090601FF2040404080404040200109090B
:101380000602FF80808080808080808003090906BB
:1013900001FF80404040204040408005030306009C
:1013A0000248A890FF20746F6F206C6F6E672065F5
:1013B0007874727573696F6E2070726576656E747D
:1013C00065640A0048617264636F64656420446503
:1013D0006661756C742053657474696E6773204C14
:1013E0006F616465640A00000048420000484200E2
:1013F00000A0410000C841000034420000C8420083
:1014000000C842F0F7FB430000FA4400000C43E838
:10141000030000E803000014000000102700001083
:101420002700003B200020204D3930360020204D81
:1014300035363920533100546F6F6C2D6368616EFF
:1014400067696E673A0054312045005430204500EA
:10145000447269766572207374657070696E672076
:101460006D6F64653A0020543120450020543020CF
:101470004500537465707065722064726976657298
:101480002063757272656E743A0020204D323530DB
:101490002043004C434420436F6E74726173743A6E
:1014A0000020440020490020204D333031205000DE
:1014B0005049442073657474696E67733A0020461E
:1014C0000020420020480020204D313435205300B8
:1014D0004D6174657269616C206865617475702016
:1014E000706172616D65746572733A0020204D32CF
:1014F0003138205400486F74656E64206F666673DF
:101500006574733A0020204D323036205800486F01
:101510006D65206F66667365743A00205300202065
:101520004D323035204200416476616E6365643A25
:1015300020423C6D696E5F7365676D656E745F74A4
:10154000696D655F75733E20533C6D696E5F6665BE
:101550006564726174653E20543C6D696E5F74729F
:101560006176656C5F66656564726174653E20587E
:101570003C6D61785F785F6A65726B3E20593C6DA7
:1015800061785F795F6A65726B3E205A3C6D617865
:101590005F7A5F6A65726B3E20453C6D61785F657E
:1015A0005F6A65726B3E0020520020204D3230345D
:1015B000205000416363656C65726174696F6E20D1
:1015C00028756E6974732F7332293A20503C7072FB
:1015D000696E745F616363656C3E20523C72657432
:1015E000726163745F616363656C3E20543C747226
:1015F0006176656C5F616363656C3E0020204D32EF
:10160000303120540020204D3230312058004D61BF
:1016100078696D756D20416363656C65726174698D
:101620006F6E2028756E6974732F7332293A00200B
:10163000450020204D32303320540020204D3230E0
:10164000332058004D6178696D756D20666565645D
:1016500072617465732028756E6974732F73293AEB
:101660000053746570732070657220756E69743AEA
:101670000020204D32303020530020440020204DE7
:101680003230302054002044697361626C65640A12
:101690000046696C616D656E742073657474696E63
:1016A00067733A0020204D3134392043203B2055C8
:1016B0006E69747320696E2043656C736975730A73
:1016C0000020286D6D290020204732312020202065
:1016D0003B20556E69747320696E206D6D0024F493
:1016E000D43050C38E20C2A24017828B7011127A60
:1016F000910D816CD90AA861E108C758660761514C
:1017000043061E4B5D05C145A7041A411104093D5E
:101710009803713931034036DB0265339102D430CE
:101720005402802E1D02632CEE01752AC501B028DB
:10173000A001102781018F2564012B244B01E02299
:101740003401AC211F018D200D01801FFC00841E7F
:10175000ED00971DDF00B81CD200E61BC600201B61
:10176000BC00641AB200B219A8000A19A0006A18D5
:101770009900D117910040178B00B51684003116DF
:101780007E00B31579003A157300C7146F00581422
:101790006A00EE1366008813630025135E00C7120B
:1017A0005B006C12570015125400C11151007011EA
:1017B0004F0021114B00D61049008D1047004610F4
:1017C000440002104200C00F4000800F3E00420F54
:1017D0003C00060F3B00CB0E3800930E37005C0E2A
:1017E0003500270E3400F30D3200C10D3100900D8D
:1017F0003000600D2E00320D2D00050D2C00D90C8F
:101800002B00AE0C2900850C29005C0C2700350C40
:1018100027000E0C2600E80B2400C40B2400A00BAC
:1018200023007D0B23005A0B2100390B2100180BDC
:101830002000F80A1F00D90A1E00BB0A1E009D0ADC
:101840001D00800A1D00630A1C00470A1B002C0AA9
:101850001B00110A1A00F7091A00DD091900C40952
:101860001900AB091900920917007B0918006309D8
:1018700017004C09160036091600200916000A093F
:101880001500F5081500E0081400CC081400B8088D
:101890001400A4081400900813007D0812006B08BF
:1018A00013005808120046081200340811002308DB
:1018B00011001208110001081100F0071000E007E4
:1018C0001000D0071000C0071000B0070F00A107DC
:1018D000100091070E0083070F0074070F006507C3
:1018E0000E0057070E0049070E003B070D002E079C
:1018F0000E0020070D0013070D0006070D00F90666
:101900000C00ED060D00E0060C00D4060C00C80625
:101910000C00BC060C00B0060C00A4060B009906D7
:101920000C008D060B0082060B0077060B006C0680
:101930000B0061060A0057060B004C060A0042061F
:101940000A0038060A002E060A0024060A001A06B3
:101950000A001006090007060A00FD050900F40543
:101960000900EB050900E2050900D9050900D005C9
:101970000900C7050900BE050900B5050800AD0549
:101980000800A50509009C050800940508008C05C1
:101990000800840508007C050800740508006C0533
:1019A0000700650508005D050700560508004E059F
:1019B0000700470507004005080038050700310506
:1019C00007002A050700230507001C050600160569
:1019D00007000F0507000805060002050700FB04C5
:1019E0000600F5040700EE040600E8040600E20421
:1019F0000700DB040600D5040600CF040600C90476
:101A00000600C3040600BD040600B7040600B104C6
:101A10000500AC040600A6040600A00405009B0413
:101A2000060095040500900406008A04050085045C
:101A30000500800406007A040500750405007004A2
:101A400005006B04050066040500610405005C04E4
:101A5000050057040500520405004D040500480424
:101A60000500430405003E0404003A040500350463
:101A70000500300404002C0405002704040023049E
:101A800005001E0404001A040400160405001104D5
:101A900004000D040400090405000404040000040B
:101AA0000400FC030400F8030400F4030400F00342
:101AB0000400EC030400E8030400E4030400E00372
:101AC0000400DC030400D8030400D4030400D003A2
:101AD0000400CC030400C8030300C503030024F47E
:101AE00004D9201BC40C5C0E9804C4095F0265076E
:101AF0007101F405F900FB04B30048048700C10339
:101B000069005803550003034500BE023A008402F1
:101B1000310053022A002902250004022000E401BA
:101B20001C00C8011900AF011700980114008401BE
:101B30001300710110006101100051010E004301FA
:101B40000D0036010B002B010B0020010B001501CD
:101B500009000C01090003010800FB000800F30064
:101B60000800EB000700E4000600DE000600D800D5
:101B70000600D2000600CC000500C7000500C20028
:101B80000500BD000400B9000400B5000400B10068
:101B90000400AD000400A9000400A5000300A20099
:101BA00003009F0004009B000300980003009500C1
:101BB000020093000300900003008D0002008B00E0
:101BC00003008800020086000200840003008100F8
:101BD00002007F0002007D0002007B00020079000D
:101BE000020077000100760002007400020072001B
:101BF0000100710002006F0002006D0001006C0026
:101C000002006A000100690002006700010066002E
:101C10000100650001006400020062000100610033
:101C20000100600001005F0002005D0001005C0037
:101C300001005B0001005A0001005900010058003A
:101C4000010057000100560001005500010054003A
:101C50000100530000005300010052000100510038
:101C60000100500001004F0001004E0000004E0036
:101C700001004D0001004C0001004B0000004B0032
:101C800001004A000100490001004800000048002E
:101C90000100470001004600000046000100450029
:101CA0000000450001004400010043000000430023
:101CB000010042000000420001004100000041001C
:101CC0000100400001003F0000003F0001003E0015
:101CD00000003E0001003D0000003D0001003C000E
:101CE00000003C0000003C0001003B0000003B0005
:101CF00001003A0000003A000100390000003900FC
:101D000001003800000038000000380001003700F2
:101D100000003700010036000000360000003600E9
:101D200001003500000035000000350001003400DE
:101D300000003400000034000100330000003300D4
:101D400000003300010032000000320000003200C9
:101D500001003100000031000000310001003000BE
:101D6000000030000000300001002F0000002F00B4
:101D700000002F0000002F0001002E0000002E00A8
:101D800000002E0001002D0000002D0000002D009D
:101D900000002D0001002C0000002C0000002C0091
:101DA00000002C0001002B0000002B0000002B0085
:101DB00000002B0001002A0000002A0000002A0079
:101DC00000002A000100290000002900000029006D
:101DD0000000290000002900010028000000280060
:101DE0000000280000002800000028000100270053
:101DF0000000270000002700000027000000270047
:101E00000100260000002600000026000000260039
:101E1000000026000100250000002500000025002C
:101E2000000025000000250000002500010024001E
:101E30000000240000002400000024000000240012
:101E40000100230000002300000023000000230005
:101E500000002300000023000000230001002200F6
:101E600000002200000022000000220000002200EA
:101E700000002200010021000000210000002100DC
:101E800000002100000021000000210000002100CE
:101E900001002000000020000000200000002000C1
:101EA00000002000000020000000200000002000B2
:101EB00001001F0000001F0000001F0000001F00A5
:101EC00000001F0000001F0000001F0001001E0096
:101ED00000001E0000001E0000001E00000004376D
:101EE00000001E290000511B0000581000001009BE
:101EF0000000CC04000078020000410100002043F3
:101F00006F756E7420583A00453200426564004592
:101F10003100626564002C2073797374656D2073E1
:101F2000746F7070656421204865617465725F49E3
:101F3000443A200048656174696E67204661696CA7
:101F400065640048656174696E67206661696C65E7
:101F500064004572723A204D415854454D50004D31
:101F6000415854454D5020747269676765726564C5
:101F7000004572723A204D494E54454D50004D492E
:101F80004E54454D502074726967676572656400F0
:101F9000202F002040002042403A0020403A0049D3
:101FA0006E76616C69642065787472756465720A16
:101FB0000041637469766520457874727564657252
:101FC0003A2000026D61726C696E66772E6F7267DF
:101FD00000322E302E392E31001FFFFFFFFFFFFF92
:101FE000600000000001FF400000000000FF8000D2
:101FF000000000007F83CF00000C303F87FF80008F
:102000000C301F867980000C000F8C30C7838C3019
:10201000E78C30CFC7CC31F38C30DCECEC33B98CAF
:1020200030D86C6C33198C30D06C0C33198C30D8A0
:102030006C0C33198C30DC6C0E3B198C30CF7C0768
:102040009F198C30C77C038F1940000000000002EC
:10205000600000000000061FFFFFFFFFFFF81000F8
:10206000600350012C0190012201D00118011002DF
:102070000E0170020401E002FA006003F0000004A7
:10208000E600B004DC00A005D200B006C8000008DD
:10209000BE00A009B400800BAA00D00DA0009010D3
:1020A0009600C0138C0070178200901B78001020DF
:1020B0006E00C0246400E02D500080353C00A03A42
:1020C0002800A03D1400003F0000A03FECFF544D4D
:1020D0004320434F4E4E454354494F4E20455252A4
:1020E0004F52002020506C616E6E657242756666BC
:1020F000657242797465733A2000204672656520E6
:102100004D656D6F72793A2000436F6D70696C6533
:10211000643A2053657020323420323032310A0064
:10212000204C61737420557064617465643A203288
:102130003032312D30362D3237207C204175746895
:102140006F723A20286E6F6E652C2064656661752B
:102150006C7420636F6E666967290A004D61726C4A
:10216000696E20322E302E392E310A0020536F66D0
:1021700074776172652052657365740A0020576137
:10218000746368646F672052657365740A00204247
:10219000726F776E206F75742052657365740A00D4
:1021A0002045787465726E616C2052657365740A9F
:1021B00000506F77657255700A0073746172740A0B
:1021C00000456E6473746F7073002553202563207F
:1021D000256320256320256300205A3A0020593AC0
:1021E0000020583A00656E6473746F7073206869DC
:1021F000743A2000434F4D4D554E49434154494F89
:102200004E0044525952554E004552524F525300BF
:10221000494E464F004543484F000000210024002E
:1022200027002A002D0030003300010100000401C6
:1022300007010A01004D6F76652025736D6D004D15
:102240006F766520302E316D6D004D6F76652031D3
:102250006D6D004D6F76652031306D6D004D6F7680
:102260006520417869730045787472756465720001
:102270004D6F7665205A004D6F76652059004D6F81
:1022800076652058006F6B007370726561644379E6
:10229000636C6500737465616C746843686F70008B
:1022A00020647269766572206D6F64653A09007307
:1022B00070726561644379636C6500737465616C09
:1022C000746843686F700020647269766572206D6F
:1022D0006F64653A090020647269766572206375DF
:1022E0007272656E743A200020647269766572209D
:1022F00063757272656E743A2000454550524F4DB9
:102300002064697361626C65640A00486F6D6520C2
:10231000257325732573204669727374004F6666B2
:1023200073657473204170706C69656400457272E6
:102330003A20546F6F206661722100546F6F2066DF
:1023400061722066726F6D207265666572656E637C
:102350006520706F696E740A0000007A4300007A8D
:10236000430000A0434C434420436F6E747261737A
:10237000743A200020643A0020693A0020703A0044
:10238000496E76616C6964206578747275646572F3
:102390000A003A200020536572766F2000206F7586
:1023A00074206F662072616E67650A0053657276ED
:1023B0006F200020466C6F773A200046523A004862
:1023C0006F74656E64206F6666736574733A004F50
:1023D0004646004F4E0020580020204D61783A209C
:1023E00000200020204D696E3A2000536F66742053
:1023F000656E6473746F70733A20002059004D321B
:102400003036205800205400205200416363656C30
:1024100065726174696F6E3A2050004D3134352019
:10242000533C696E6465783E206F7574206F66203A
:1024300072616E67652028302D31290A002F2F0028
:102440004D4541545041434B00434F4F4C45525F23
:1024500054454D5045524154555245004348414D15
:102460004245525F54454D504552415455524500E6
:10247000424142595354455050494E4700415243FE
:1024800053004D4F54494F4E5F4D4F4445530054F8
:102490004845524D414C5F50524F54454354494F6B
:1024A0004E004C4F4E475F46494C454E414D45000E
:1024B0004155544F5245504F52545F53445F53540B
:1024C000415455530053445F5752495445005245B7
:1024D00050454154005344434152440050524F4DE3
:1024E00050545F535550504F525400484F53545F0F
:1024F000414354494F4E5F434F4D4D414E4453006D
:10250000454D455247454E43595F50415253455200
:1025100000434153455F4C494748545F4252494745
:1025200048544E45535300544F47474C455F4C4920
:102530004748545300534F4654574152455F504FFC
:10254000574552004255494C445F50455243454E11
:1025500054004C4556454C494E475F444154410058
:102560005A5F50524F42450052554E4F555400410C
:1025700055544F4C4556454C005052494E545F4AB5
:102580004F420050524F4752455353004155544F0C
:102590005245504F52545F54454D50004155544F91
:1025A0005245504F52545F504F5300564F4C554D6B
:1025B000455452494300454550524F4D0042494E03
:1025C0004152595F46494C455F5452414E5346452E
:1025D000520053455249414C5F584F4E5F584F4649
:1025E00046004649524D574152455F4E414D453A8E
:1025F0004D61726C696E20322E302E392E312028BA
:1026000053657020323420323032312031373A3342
:10261000333A34362920534F555243455F434F4494
:10262000455F55524C3A6769746875622E636F6DE9
:102630002F4D61726C696E4669726D776172652F9C
:102640004D61726C696E2050524F544F434F4C5F36
:1026500056455253494F4E3A312E30204D41434852
:10266000494E455F545950453A3344205072696E83
:102670007465722045585452554445525F434F5536
:102680004E543A3220555549443A63656465326187
:1026900032662D343161322D343734382D39623180
:1026A000322D6335356336326633363766660A0057
:1026B0003344205072696E746572204F46462E0076
:1026C0004D3131332053006F666600152210220908
:1026D000220222F42144454255473A006F6B0025FF
:1026E00069730025696D20256973002569682025B7
:1026F000696D202569730025696420256968202596
:10270000696D202569730025697920256964202574
:1027100069682025696D20256973005072696E749F
:102720002074696D653A20004E6F204D6F76652EDE
:1027300000436C69636B20746F20526573756D651F
:102740002E2E2E00536C6565702E2E2E0047322FD4
:1027500047332062616420706172616D65746572D7
:10276000730A0020746F6F206C6F6E672065787439
:10277000727573696F6E2070726576656E746564CC
:102780000A00486F6D696E67204661696C65640078
:10279000010101307800220A00556E6B6E6F776E72
:1027A00020636F6D6D616E643A20220033442050C7
:1027B00072696E7465722052656164792E00507280
:1027C000696E74696E672E2E2E005072696E7420C9
:1027D0005061757365640020453A00205A3A002024
:1027E000593A00583A00205A004C4F570048494780
:1027F00048004F4B004572726F723A20416C6C205A
:102800000020636F6E6E656374696F6E2E2E2E20CE
:102810000054657374696E6720004C4F5700484937
:102820004748004F4B004572726F723A20416C6C02
:10283000200020636F6E6E656374696F6E2E2E2E9E
:10284000200054657374696E672000627573793A6D
:102850002070617573656420666F7220696E707593
:10286000740A00627573793A20706175736564202B
:10287000666F7220757365720A00627573793A200B
:1028800070726F63657373696E670A0000000A0BEC
:1028900002090C0D0E0807030401000000000000EF
:1028A0000000000000000000000000000000000028
:1028B00000000000000000001211100000000000E5
:1028C0000000000000000000000000000000000008
:1028D00000004D3131322053687574646F776E009B
:1028E00053544F505045442E20005072696E746509
:1028F000722073746F707065642064756520746FE6
:10290000206572726F72732E204669782074686534
:10291000206572726F7220616E6420757365204D40
:1029200039393920746F20726573746172742E2086
:102930002854656D706572617475726520697320C5
:1029400072657365742E2053657420697420616606
:102950007465722072657374617274696E67290A96
:10296000004E6F20436865636B73756D20776974E3
:1029700068206C696E65206E756D6265722C204CE6
:10298000617374204C696E653A2000636865636BFF
:1029900073756D206D69736D617463682C204C6173
:1029A0007374204C696E653A20004C696E65204E48
:1029B000756D626572206973206E6F74204C61734F
:1029C00074204C696E65204E756D6265722B312CDA
:1029D000204C617374204C696E653A20004D313192
:1029E000300053657269616C207374617475732073
:1029F0006D69736D617463680A002121204B494C35
:102A00004C20636175736564206279204B494C4C9E
:102A100020627574746F6E2F70696E0A0021212018
:102A20004B494C4C20636175736564206279207456
:102A30006F6F206D75636820696E61637469766578
:102A40002074696D65202D2063757272656E742027
:102A5000636F6D6D616E643A20006F6B0A005265A2
:102A600073656E643A2000544845524D414C2052E3
:102A7000554E4157415900546865726D616C205242
:102A8000756E61776179000000200023002600291F
:102A9000002C002F00320000010000030106010994
:102AA0000100002200250028002B002E00310034F8
:102AB0000002010000050108010B010505050507DD
:102AC0000508080808020202020A0A0808040404A9
:102AD00004010101010101010103030303030303D5
:102AE00003040707070C0C0C0C0C0C0C0C02020264
:102AF0000206060606060606060B0B0B0B0B0B0B57
:102B00000B010210202008081020401020408002F5
:102B10000102010804020101020408102040808023
:102B200040201008040201800402018040201008A7
:102B3000040201080402010102040810204080017F
:102B4000020408102040800057DC11241FBECFEF84
:102B5000D1E2DEBFCDBF00E00CBF13E0A0E0B2E0E9
:102B6000EAE0FDED01E00BBF02C007900D92A63533
:102B7000B107D9F721E1A6E5B3E001C01D92A93B59
:102B8000B207E1F715E1C5EAD5E100E006C02197FB
:102B90000109802FFE010E944BEBC43AD10780E06F
:102BA0000807A9F70E9486D60C9483EE0C940000C7
:102BB0007F928F929F92AF92BF92CF92DF92EF92CD
:102BC000FF920F931F93CF93DF937090B806C4E8E2
:102BD000D6E098E3C92E92E0D92E2FE5E22E22E02E
:102BE000F22E00EB16E0772009F45EC0F801808039
:102BF0009180A280B38020E030E0A901C501B4013A
:102C00000E949AE4882309F44FC020E030E040E0BD
:102C10005FE3C501B4010E94FFE49B01AC010E9487
:102C2000FFE42BED3FE049E450E40E94FFE49B0108
:102C3000AC0160E070E080E89FE30E9466EC4B012D
:102C40005C0189929992A992B992F6016191719170
:102C50006F01072E000C880B990B0E94A0E42AE05C
:102C600037ED43E25CE30E94FFE4A50194010E947A
:102C7000FFE4F70161937193819391937F010C5F5E
:102C80001F4FF6E0CC38DF0709F0ADCFDF91CF91D1
:102C90001F910F91FF90EF90DF90CF90BF90AF907A
:102CA0009F908F907F900895812C912C80E8A82E82
:102CB0008FE3B82EC6CF0F931F93E62FDC01FC9154
:102CC0000F2F10E030E020E0062E04C03695279547
:102CD000179507950A94D2F700FF1CC0009185054F
:102CE00010E030E020E004C0369527951795079551
:102CF0006A95D2F700FF0EC041E050E060E070E05E
:102D000004C0440F551F661F771FEA95D2F7409500
:102D10004F234C931F910F910895CF92DF92EF9222
:102D2000FF92FC01C080D180E280F38020E030E09F
:102D3000A901C701B6010E949AE487FF68C0C701D4
:102D4000B601905820E030E040E251E40E94FFE4F8
:102D500020E030E040EA50E40E948AEB20E030E0DE
:102D600040E251E40E9466EC0E94CEEC9B0160E2DE
:102D70002031F7E23F0730F0C90160E177E20E94BD
:102D800024EB605D60931505283E83E0380708F466
:102D900045C0C90168EE73E00E9424EBCB016AE0F4
:102DA00070E00E9424EB805D8093160580E224365B
:102DB000310558F0C90164E670E00E9424EBCB01B4
:102DC0006AE070E00E9424EB805D8093170580E24A
:102DD0002A30310558F0EAE0F0E0C901BF010E9455
:102DE00024EBCB01BF010E9424EB805D809318058A
:102DF000C9016AE070E00E9424EB805D80931905B0
:102E000085E195E0FF90EF90DF90CF90089520E06E
:102E100030E040E251E4C701B60198CF80E2C4CF70
:102E20008F929F92AF92BF92CF92DF92EF92FF92DA
:102E3000FC01C080D180E280F38020E030E040E2FD
:102E400051E4C701B6010E94FFE420E030E040E217
:102E500051E40E94FFE44B015C0120E030E0A90155
:102E6000C701B6010E949AE420E030E040EA50E455
:102E700087FF04C020E030E040EA50ECC501B40117
:102E80000E948AEB20E030E040E251E40E9466ECD0
:102E90000E94CEEC9B018BE237FF05C0222733272F
:102EA000261B370B8DE280931405C90168EE73E091
:102EB0000E9438EBCB01EAE0F0E0BF010E9438EB62
:102EC000805D80931505C90164E670E00E9438EBCF
:102ED000CB01BF010E9438EB805D80931605C901CC
:102EE000BF010E9438EB282FCB01BF010E9438EBB5
:102EF000805D809317058EE280931805205D2093F6
:102F0000190584E195E0FF90EF90DF90CF90BF909E
:102F1000AF909F908F9008959C0197FF26C0EE2759
:102F2000FF27E81BF90B2D398FEF38070CF05DC038
:102F30008DE280931605CF0164E670E00E9438EBC5
:102F4000CB012AE030E0B9010E9438EB805D80932C
:102F50001705CF01B9010E9438EBCB01B9010E94DE
:102F600038EB805D809318052AC0283E83E038073F
:102F7000B4F1C90168EE73E00E9438EBCB01EAE0DE
:102F8000F0E0BF010E9438EB805D80931605C90117
:102F900064E670E00E9438EBCB01BF010E9438EB81
:102FA000805D80931705C901BF010E9438EBCB01FA
:102FB000BF010E9438EB805D80931805F901CF01B5
:102FC0006AE070E00E9438EB805D8093190586E12D
:102FD00095E008958DE237FDC5CF80E2C3CFF901BA
:102FE00080E2243631050CF0A4CF80E280931605F0
:102FF00080931705EA30F1056CF38DE237FF80E22C
:1030000080931705CF016AE070E00E9438EB605DA5
:1030100060931805D4CF9C0197FD2DC080E2243623
:1030200031055CF0C90164E670E00E9438EBCB0129
:103030006AE070E00E9438EB805D8093170580E2C3
:103040002A3031055CF0EAE0F0E0C901BF010E94DE
:1030500038EBCB01BF010E9438EB805D80931805EF
:10306000C9016AE070E00E9438EB805D8093190529
:1030700087E195E008953195219531098DE2DDCF05
:103080009C01283E83E03807D0F1C90168EE73E067
:103090000E9424EBCB016AE070E00E9424EB805D8B
:1030A0008093160580E22436310558F0C90164E6A4
:1030B00070E00E9424EBCB016AE070E00E9424EBF8
:1030C000805D8093170580E22A30310558F0EAE0F0
:1030D000F0E0C901BF010E9424EBCB01BF010E94B7
:1030E00024EB805D80931805C9016AE070E00E94BE
:1030F00024EB805D8093190586E195E0089580E2D8
:10310000CFCF24E6829FC001112481589F4F6FEFDB
:1031100070E00E9438EB262F81E3643609F080E2EC
:103120008093160590E22A3040F03AE0822F632F18
:103130000E940BEB0E940BEB905D90931705822F82
:103140006AE00E940BEB905D9093180585E28093F6
:10315000190586E195E008950F931F93CF93DF93B0
:103160008091810690E0EC01CC0FDD1FCC0FDD1FBC
:103170008E01015A1D4F880F991FFC01E85CFD4F1D
:1031800060817181072E000C880B990B0E94A0E4CE
:103190002AE037ED43E25CE30E94FFE4CC57D94FCD
:1031A000288139814A815B810E94FFE4F8016083B4
:1031B000718382839383DF91CF911F910F91089543
:1031C0000F931F93CF93DF938091090890E0EC0158
:1031D000CC0FDD1FCC0FDD1F8E01015A1D4F880F54
:1031E000991FFC01E85CFD4F60817181072E000C86
:1031F000880B990B0E94A0E42AE037ED43E25CE3E0
:103200000E94FFE4CC57D94F288139814A815B81E4
:103210000E94FFE4F8016083718382839383DF91CE
:10322000CF911F910F910895CF93DF93EC01CB01C4
:10323000BA010E94A0E42DEC3CEC4CEC5DE30E9452
:1032400066EC0E94D3EC79836883DF91CF91089577
:103250000E94A0E42DEC3CEC4CEC5DE30E9466EC9B
:103260000E94D3ECCB010CCF80918106811104C068
:103270008091770680930B0808958F929F92AF926A
:10328000BF92CF92DF92EF92FF92CF936B017C01BE
:1032900020E030E0A9010E949AE487FFA3C06DEB13
:1032A00077E386E095EBA70196010E948AEB6B011C
:1032B0007C0120E030E040E251E40E94FFE420E0A5
:1032C00030E048EC52E40E94FFE44B015C0120E056
:1032D00030E040E251ECC701B6010E949AE41816B2
:1032E00054F420E030E048EC52E4C701B6010E94FB
:1032F000B1ED87FD8BC020E030E0A901C701B60128
:103300000E949AE487FF73C060E070E080EA90EC6E
:10331000A50194010E948AEB20E030E040E251E4F4
:103320000E9466EC0E94CEEC6B017C01F7FC64C04D
:1033300020E137E240E050E00E94D0EACA01B90142
:103340002AE030E040E050E00E94D0EA605D609307
:103350001405C701B60128EE33E040E050E00E94BA
:10336000D0EA9AE0892E912CA12CB12CCA01B90186
:10337000A50194010E94D0EA605D60931505C70124
:10338000B60124E630E040E050E00E94D0EACA01F5
:10339000B901A50194010E94D0EA605D6093160511
:1033A0008EE280931705C701B601A50194010E9422
:1033B000D0EAC62FCA01B901A50194010E94D0EA42
:1033C000605D60931805C05DC093190584E195E0C8
:1033D000CF91FF90EF90DF90CF90BF90AF909F90F4
:1033E0008F9008956DEB77E386E095E35CCF60E026
:1033F00070E080EA90E48CCFF094E094D094C09494
:10340000C11CD11CE11CF11C6DE2A1CF20E030E019
:10341000A901C701B6010E949AE487FF6AC060E073
:1034200070E080EA90ECA50194010E948AEB20E014
:1034300030E040E251E40E9466EC0E94CEEC4B0189
:103440005C0120E030E0A901C701B6010E94B1EDA6
:1034500087FD0BC020E030E040E251E4C701B60137
:103460000E949AE460E287FD13C0B7FC47C0C50123
:10347000B40128EE33E040E050E00E94D0EACA01F7
:10348000B9012AE030E040E050E00E94D0EA605DFF
:1034900060931505C501B40124E630E040E050E03A
:1034A0000E94D0EA8AE0C82ED12CE12CF12CCA016E
:1034B000B901A70196010E94D0EA605D60931605EC
:1034C0008EE280931705C501B401A70196010E9401
:1034D000D0EAC62FCA01B901A70196010E94D0EA1D
:1034E000605D60931805C05DC093190585E195E0A6
:1034F0006FCF60E070E080EA90E495CFB094A09444
:1035000090948094811C911CA11CB11C6DE2C0CFD1
:10351000CF92DF92EF92FF926B017C0120E030E0CE
:10352000A9010E949AE487FD25C06DEB77E386E050
:1035300095E3A70196010E948AEB6B017C0120E0D4
:1035400030E0A9010E949AE420E030E040E05FE32F
:1035500087FF04C020E030E040E05FEBC701B60128
:103560000E948AEB0E94CEECCB01FF90EF90DF909F
:10357000CF9051CD6DEB77E386E095EBDACFCF932B
:10358000DF93EC01CB01BA010E94A0E429EC38ECF6
:1035900048EC5EE30E9466EC20E030E040E05FE350
:1035A0000E948AEB0E94D3EC6883DF91CF9108954B
:1035B0000E94A0E429EC38EC48EC5EE30E9466EC43
:1035C00020E030E040E05FE30E948AEB0E94D3EC11
:1035D000862F97CD80913602909137020C940C384B
:1035E000E091810686E0E802F0011124EE5CF84FDC
:1035F0008091770690E095838483089580910908EF
:10360000882369F0809130058770873041F48BEC16
:103610009CE090939805809397051092090808956F
:10362000CF93DF9300D01F92CDB7DEB70E94D3ECCB
:103630000E949EE469837A838B839C83CE010196EA
:103640006CDB0F900F900F900F90DF91CF9108954A
:103650008F929F92AF92BF92CF92DF92EF92FF92A2
:10366000CF936B017C0120E030E0A9010E949AE435
:1036700087FD9FC06DEB77E386E095E3A701960198
:103680000E948AEB6B017C0120E030E040E251E4D3
:103690000E94FFE420E030E048EC52E40E94FFE4A6
:1036A0004B015C0120E030E0A901C701B6010E9496
:1036B0009AE420E030E040EA50E487FF04C020E0D4
:1036C00030E040EA50ECC501B4010E948AEB20E0F2
:1036D00030E040E251E40E9466EC0E94CEEC6B01C7
:1036E0007C018BE2F7FE09C0F094E094D094C09482
:1036F000C11CD11CE11CF11C8DE280931305C70194
:10370000B60120E137E240E050E00E94D0EA8AE0D2
:10371000882E912CA12CB12CCA01B901A5019401CC
:103720000E94D0EA605D60931405C701B60128EEDF
:1037300033E040E050E00E94D0EACA01B901A5019F
:1037400094010E94D0EA605D60931505C701B6013F
:1037500024E630E040E050E00E94D0EACA01B9011E
:10376000A50194010E94D0EA605D609316058EE287
:1037700080931705C701B601A50194010E94D0EA04
:10378000C62FCA01B901A50194010E94D0EA605D6B
:1037900060931805C05DC093190583E195E0CF9152
:1037A000FF90EF90DF90CF90BF90AF909F908F9061
:1037B00008956DEB77E386E095EB60CF8F929F9253
:1037C000AF92BF92CF92DF92EF92FF92CF936B01B5
:1037D0007C0120E030E0A9010E949AE487FDAAC0A4
:1037E0006DEB77E386E095E3A70196010E948AEBF3
:1037F0006B017C0120E030E0A9010E949AE487FF80
:103800009EC0C701B601905820E030E040E251E48C
:103810000E94FFE420E030E040E251E40E94FFE437
:1038200020E030E040EA50E40E948AEB20E030E003
:1038300040E251E40E9466EC0E94CEEC6B017C01F8
:1038400080E28093130560E280E1C81687E2D80623
:10385000E104F1048CF0C701B60120E137E240E059
:1038600050E00E94D0EACA01B9012AE030E040E00D
:1038700050E00E94D0EA605D6093140560E288EE3B
:10388000C81683E0D806E104F1048CF0C701B60144
:1038900028EE33E040E050E00E94D0EACA01B901CE
:1038A0002AE030E040E050E00E94D0EA605D6093A2
:1038B000150560E284E6C816D104E104F1048CF039
:1038C000C701B60124E630E040E050E00E94D0EAB3
:1038D000CA01B9012AE030E040E050E00E94D0EA9D
:1038E000605D609316058AE0882E912CA12CB12C86
:1038F000C701B601A50194010E94D0EAC62FCA01F2
:10390000B901A50194010E94D0EA605D609317059A
:103910008EE280931805C05DC093190583E195E0A0
:10392000CF91FF90EF90DF90CF90BF90AF909F909E
:103930008F9008956DEB77E386E095EB55CF20E00F
:1039400030E040E251E4C701B60162CFCF92DF928E
:10395000EF92FF92CF93DF9300D01F92CDB7DEB7E7
:103960006B017C0120E030E0A9010E949AE487FD10
:103970001AC06DEB77E386E095E3A70196010E94FC
:103980008AEB69837A838B839C83CE010196C5D9A8
:103990000F900F900F900F90DF91CF91FF90EF90CD
:1039A000DF90CF9008956DEB77E386E095EBE5CF60
:1039B0008F929F92AF92BF92CF92DF92EF92FF923F
:1039C000CF936B017C0120E030E0A9010E949AE4D2
:1039D00087FD93C06DEB77E386E095E3A701960141
:1039E0000E948AEB6B017C0120E030E040E251E470
:1039F0000E94FFE420E030E04AE754E40E94FFE444
:103A00004B015C0120E030E0A901C701B6010E9432
:103A10009AE420E030E040EA50E487FF04C020E070
:103A200030E040EA50ECC501B4010E948AEB20E08E
:103A300030E040E251E40E9466EC0E94CEEC6B0163
:103A40007C01C114D104E104F10409F45BC0F7FE68
:103A500059C0F094E094D094C094C11CD11CE11CD6
:103A6000F11C8DE280931405C701B60128EE33E006
:103A700040E050E00E94D0EA8AE0882E912CA12CF0
:103A8000B12CCA01B901A50194010E94D0EA605D80
:103A9000609315058EE280931605C701B60124E6F2
:103AA00030E040E050E00E94D0EACA01B901A5012F
:103AB00094010E94D0EA605D60931705C701B601CA
:103AC000A50194010E94D0EAC62FCA01B901A5013F
:103AD00094010E94D0EA605D60931805C05DC093B8
:103AE000190584E195E0CF91FF90EF90DF90CF90A2
:103AF000BF90AF909F908F9008956DEB77E386E035
:103B000095EB6CCF80E2AECFCF93DF93EC01CB018E
:103B1000BA010E94A0E420E030E040E251E40E94BB
:103B200066EC688379838A839B83DF91CF910895C4
:103B30000E94A0E420E030E040E251E40E9466EC04
:103B40003DCECF93DF93EC01CB01BA010E94A0E4FC
:103B500020E030E048EC52E40E9466EC6883798310
:103B60008A839B83DF91CF910895CF93DF93EC01FC
:103B7000CB01BA010E94A0E420E030E048EC52E41E
:103B80000E9466EC688379838A839B83DF91CF915F
:103B900008950E94A0E420E030E048EC52E40E9446
:103BA00066EC56CDCF93DF93EC01CB01BA010E94B6
:103BB000A0E4688379838A839B83DF91CF91089502
:103BC000CF93DF93EC01CB01BA010E94A0E468839C
:103BD00079838A839B83DF91CF9108950E94A0E42B
:103BE00097CCCF93DF93EC01CB01BA010E94A0E404
:103BF0002AE037ED43E25DE30E9466EC0E94D3ECDD
:103C0000688379838A839B83DF91CF9108950E9493
:103C1000A0E42AE037ED43E25DE30E9466EC00CDCC
:103C2000CF93DF93EC01CB01BA010E94A0E42AE01C
:103C300037ED43E25DE30E9466EC688379838A8313
:103C40009B83DF91CF9108950E94A0E42AE037ED95
:103C500043E25DE30E9466EC79CE0E94A0E476CE5A
:103C60000E94A0E420E030E048EC52E40E9466ECC0
:103C700004CBCF93DF93EC01CB01BA010E94A0E407
:103C80000E94CEEC79836883DF91CF9108950E94E2
:103C9000A0E40E94CEECCB01BEC9CF93DF93EC0130
:103CA000CB01BA010E94A0E420E030E04AE754E4EE
:103CB0000E9466EC688379838A839B83DF91CF912E
:103CC00008950E94A0E420E030E04AE754E40E9416
:103CD00066EC6ECE8091621090916310891B8F709C
:103CE00039F481E09091CA07913019F080E008958D
:103CF00081E00895E091F304E63028F581E08E0F2D
:103D00008093F30440916F065091700660917106A4
:103D10007091720620917406909168068091F90462
:103D200039E0E39FF0011124E355FB4FA0919C1073
:103D3000B0919D10B183A0834283538364837583C4
:103D40002683978380870895FC0184910895FC0160
:103D500080E09491992331F0907C903809F08F5F46
:103D60003196F7CF0895FC0180810895FC0180E031
:103D70009191992329F0907C9038D1F38F5FF8CFFF
:103D80000895089590E080E00895282F9091BD0750
:103D9000833021F495FD0FC094FD0FC0892F90E072
:103DA000B0E0A0E004C0B695A795979587952A95B1
:103DB000D2F78170089581E0089580E008958F9290
:103DC0009F92AF92BF92EF92FF920F931F93CF9368
:103DD000DF93EC018B01E42EF22E80919C109091E8
:103DE0009D108C179D07B9F122E3CC3ED20709F054
:103DF0003DC08356914471F40E94B5B66E517B4F1D
:103E00008F4F9F4F6093F4047093F5048093F604F2
:103E10009093F704D0939D10C0939C1030E020E065
:103E200000936F061093700620937106309372060C
:103E3000E0927406F0926806C356D14421F41092C1
:103E4000F9041092F30482E080933E0281E08093B3
:103E500069061092F204DF91CF911F910F91FF90AC
:103E6000EF90BF90AF909F908F90089521E4C3365C
:103E7000D20781F68C5E9243D1F40E94B5B6809051
:103E8000F4049090F504A090F604B090F70468193B
:103E900079098A099B0997FF0AC0809130058770CC
:103EA000873029F417DFCAE5DFE18111B3CFC3E61C
:103EB000D1E4B0CF20E040E070E060E081E29DE33B
:103EC0007EDF81E08093F9041092C9071092C80741
:103ED000089520E040E070E060E082ED90E26FCF76
:103EE00021E02093F904FC0180819181A281B381BA
:103EF0008093100290931102A0931202B0931302C8
:103F000020E040E070E060E08091750690917606D8
:103F100056CFCF93DF9300D01F92CDB7DEB78DEC95
:103F20009CECACECBCE389839A83AB83BC83CE016D
:103F30000196D6DF0F900F900F900F90DF91CF91E9
:103F40000895CF93DF9300D01F92CDB7DEB78DECED
:103F50009CECACECBDE389839A83AB83BC83CE013C
:103F60000196BEDF0F900F900F900F90DF91CF91D1
:103F70000895CF93DF9300D01F92CDB7DEB780E0D6
:103F800090E0A0E8BFE389839A83AB83BC83CE0132
:103F90000196A6DF0F900F900F900F90DF91CF91B9
:103FA0000895CF93DF9300D01F92CDB7DEB780E0A6
:103FB00090E0A0E2B1E489839A83AB83BC83CE0115
:103FC00001968EDF0F900F900F900F90DF91CF91A1
:103FD0000895CF92DF92EF92FF92CF93C82F833054
:103FE00011F4609394040E94B5B66B017C0124EA3D
:103FF00030E74DE75FE3609110027091110280910C
:104000001202909113020E949AE487FD18C08AEF71
:1040100090E0A0E0B0E08C0D9D1DAE1DBF1D809313
:10402000950490939604A0939704B0939804C0933A
:104030000E02CF91FF90EF90DF90CF90089580E037
:1040400090E0DC01E8CFCF93DF93C0918205D0915F
:104050008305209729F160917E0570917F058091FD
:104060008005909181050E94CEEC6E5F7F4F249772
:104070006C177D07ACF470936805609367050E9428
:10408000B5B66058774C8E4F9F4F6093690570931B
:104090006A0580936B0590936C05DF91CF9108952D
:1040A0001092690510926A0510926B0510926C05CA
:1040B000F4CF0F931F93CF93DF93082F10E097E176
:1040C000899FF0011124E552F84FC085D1852097D2
:1040D00029F164817581868197810E94CEEC6E5FA3
:1040E0007F4F24976C177D07CCF486E0809FE0011A
:1040F000819FD00D1124C359DA4F798368830E94C0
:10410000B5B660547B428E4F9F4F6A837B838C830E
:104110009D83DF91CF911F910F91089586E0809F3D
:10412000F001819FF00D1124E359FA4F128213829E
:1041300014821582EECF80918106BBCF6091D60F9D
:1041400081E068278BE99FE00C94D784609112107E
:1041500081E0682787ED9FE00C94D7846091D40FAD
:104160007091D50F8BE99FE00C94B1836091101092
:104170007091111087ED9FE00C94B18367E97EE3A5
:1041800083E00C9464D46BE770E482E00C9464D414
:104190006FE770E481E00C9464D463E870E480E03D
:1041A0000C9464D46AE97EE383E00C9464D40C94A8
:1041B000A9A3CF93DF938091810690910908891379
:1041C00004C0DF91CF910C94A9A38D5F90E0EC0126
:1041D000CC0FDD1FCC0FDD1FCB5CDA4F880F991F92
:1041E000880F991FFC01EA50F94F208131814281EB
:1041F000538160E070E080E89FE30E9466EC688392
:1042000079838A839B83DF91CF9108950C94A9A32E
:104210000C94A9A30C9452A380918106082E000C43
:10422000990B209109082817190611F40C9452A330
:1042300008950C9452A30C9452A30C9452A3EF92A1
:10424000FF920F931F93CF93DF93EC018B017A01C1
:104250008A859B858617970731F0888199810E940E
:10426000F7801B870A87B701888199810E947EB2F7
:104270002E813F81820F932F911D9F838E8390E02B
:1042800080E0DF91CF911F910F91FF90EF90089503
:104290009F92AF92BF92CF92DF92EF92FF920F93D5
:1042A0001F93CF93DF93EC018B01942EA52E8A856B
:1042B0009B858617970731F0888199810E94F78046
:1042C0001B870A8788859985019649F5BC800A81F4
:1042D0008E81080FC880D980D6015596ED91FC914A
:1042E000C6011995B80EE92CFA2C10E0F7012191BE
:1042F0007F01211127C08E819F81810F911D9F8396
:104300008E8390E080E0DF91CF911F910F91FF901D
:10431000EF90DF90CF90BF90AF909F9008950E8167
:104320001F81692D7A2D888199810E947EB2800F2C
:10433000912F911D288539852817390738F681E096
:1043400090E0E1CF4B2D602FC6010E948B82080FB9
:10435000180FCCCFDF92EF92FF920F931F93CF9362
:10436000DF93EC01D62E1CAD0BAD7C0184E0E80E92
:10437000F11CE98DFA8DC7011995412F480F2D2D9C
:10438000602FC7010E948B829BAD890F8BAF81E0AC
:1043900090E0DF91CF911F910F91FF90EF90DF9010
:1043A0000895AF92BF92DF92EF92FF920F931F9307
:1043B000CF93DF938C01EB01D42E79018FE0481766
:1043C00009F488C0A5E14A17C1F1BAE04B130EC049
:1043D000EC81FD8130E020E042E061E0C801199508
:1043E00044E458E0BE01C8010E9403820A80DB81D8
:1043F000C02DF2E3DF1609F4E4C0FD1508F493C004
:1044000085E1D81609F4E2C0A7E1DA1609F4FCC088
:10441000B4E1DB127DC0EE81FF818D8190E0880FD9
:10442000991F8E0F9F1F11928E179F07E1F71A8217
:10443000888181508B831C826BC0AA80BB804FE235
:1044400058E0C8010E940382F5014481440F406B8B
:10445000BE01C8010E94EB8141E0BE01C8010E947B
:10446000F381D50116962D913C911797EC81FD8132
:1044700015964C9166E0C801199540E0BE01C8014F
:104480000E94FB814FE258E0BE01C8010E940382F6
:10449000F5014481440F4F5F406BBE01C8010E948B
:1044A000EB8141E0BE01C8010E94F381D501159660
:1044B0004C91159716962D913C91240F311DEC814E
:1044C000FD8166E0C801199540E0BE01C8010E9467
:1044D000FB818CCF41E0C8010E94FB8140E0BE011E
:1044E000C8010E94F38141E8BE01C8010E94EB812E
:1044F000F701408150E05595479555954795BE0188
:10450000C8010E94EB8140E0BE01C8010E94FB810E
:1045100081E0DF91CF911F910F91FF90EF90DF909D
:10452000BF90AF900895E6E4DE1609F47CC0F7E48E
:10453000DF1609F47CC08BE3D812EACFD7011196BD
:104540009C91119713968C9138E0390F813031F09E
:10455000833011F0392F02C0392F985021E04B8160
:10456000491708F420E041E0391708F040E091E0F5
:104570005A81351708F490E0322F342B932311F42D
:10458000242331F2F701128100E0D12C843048F469
:1045900090E0FC01EF55FD4FD08083569D4FDC012C
:1045A0000C9117FF04C0B701CE010E949080F70163
:1045B00080818D0D80838181800F8183110F89F728
:1045C000A7CFB701CE010E949080A2CF88819A81A7
:1045D000980F9A832981921770F59C819F5F9C8325
:1045E0009B81890F821710F08FEF820F8B83EE81F2
:1045F000FF818D8190E0880F991F8E0F9F1F119270
:104600008E179F07E1F784CFD7011C928A811196FC
:104610008C9311978D81815012968C9312978B8178
:1046200013968C9375CF8D81F701808371CF89812B
:10463000D7018C936DCF80E06CCFCF92DF92EF9259
:10464000FF920F931F93CF93DF93CDB7DEB72C97D5
:104650000FB6F894DEBF0FBECDBFF090D910E0903A
:10466000DA1020917A0421111DC04FEE57E06E2D13
:104670008F2D0E9474AF90E080E0F80EF092D91078
:10468000E092DA1099272C960FB6F894DEBF0FBE91
:10469000CDBFDF91CF911F910F91FF90EF90DF90F1
:1046A000CF900895C090A610D090A71022EA30E1D4
:1046B0003A8329832F2D30E03C832B832E2D30E04D
:1046C0003E832D8318861F827A8769871C861B8606
:1046D00008E411E29E012F5F3F4F44EA5EE1BC0116
:1046E000C6010E9430AFB60182EA90E10E94F780D5
:1046F0008F819885C2CFCF92DF92EF92FF920F9376
:104700001F93CF93DF93CDB7DEB72C970FB6F894F6
:10471000DEBF0FBECDBFF090D910E090DA1020912F
:104720007A0421111DC04FEC57E06E2D8F2D0E9491
:1047300074AF90E080E0F80EF092D910E092DA10B9
:1047400099272C960FB6F894DEBF0FBECDBFDF9130
:10475000CF911F910F91FF90EF90DF90CF90089530
:10476000C090A610D090A71022EA30E13A832983A6
:104770002F2D30E03C832B832E2D30E03E832D8384
:1047800018861F827A8769871C861B8608E411E2D7
:104790009E012F5F3F4F43EB5EE1BC01C6010E94CB
:1047A00030AFB60182EA90E10E94F7808F81988550
:1047B000C2CFCF92DF92EF92FF920F931F93CF93CE
:1047C000DF936B017A01EC01C75ADB4F28813CE093
:1047D000389F8001399F100D112427FF24C0FB0151
:1047E0001182108288818F5F888388819801280FC9
:1047F000311D87FD3A95C90120915B10F6012817FC
:10480000190629F024F088818C300CF43CC080819A
:104810009181049680349C4908F475C0F60180812A
:104820009181049672C088819801280F311D87FDFF
:104830003A95C90120915B102817190699F294F254
:104840008881A801480F511D87FD5A95FA01EE0F86
:10485000FF1FE40FF51FED5EFF4E808187FFC2CF83
:104860008881F801E80FF11D87FDFA95CF01EE0F61
:10487000FF1FE80FF91FED5EFF4E808160E08F772C
:104880000E94BAB5AFCF808191812881A801420FE3
:10489000511D27FD5A959A01FA01EE0FFF1FE20FF5
:1048A000F31FED5EFF4E21813281820F931FF701CE
:1048B0009183808388819801280F311D87FD3A9567
:1048C000F901EE0FFF1FE20FF31FED5EFF4E808137
:1048D00087FF20C08881080F111D87FD1A95F801F8
:1048E000EE0FFF1FE00FF11FED5EFF4E808161E0D4
:1048F0008F77DF91CF911F910F91FF90EF90DF9015
:10490000CF900C94BAB580E49CE9F7019183808341
:104910008FEF8883DF91CF911F910F91FF90EF90E0
:10492000DF90CF9008954F925F926F927F928F9217
:104930009F92AF92BF92CF92DF92EF92FF920F932E
:104940001F93CF93DF93CDB7DEB76A970FB6F89476
:10495000DEBF0FBECDBF9A8F898F5B018A01DC015C
:10496000D7966D917D918D919C91DA970E949EE4EE
:104970006B017C01F50120813181428153810E94CC
:10498000FFE40E9450EC2B013C01D8012D913D9198
:104990004D915C91C701B6010E94FFE40E9450EC6A
:1049A0004B015C01C301B2010E94D3EC698B7A8B8D
:1049B0008B8B9C8B683771058105910540F428E746
:1049C00030E040E050E0298B3A8B4B8B5C8BC5018B
:1049D000B4010E94D3EC6D877E878F87988B6837F0
:1049E00071058105910540F488E790E0A0E0B0E012
:1049F0008D879E87AF87B88BE98DFA8DED5BFF4F72
:104A0000208131814281538129833A834B835C83A6
:104A1000CA01B9010E94A0E42B013C0169897A898D
:104A20008B899C890E949EE469877A878B879C8703
:104A300020E030E0A901C301B2010E949AE488237A
:104A400009F43BC1A7019601C701B6010E94FFE42A
:104A50004B015C0129853A854B855C85CA01B9010A
:104A60000E94FFE49B01AC01C501B4010E9489EBE7
:104A70004B015C01A3019201C301B2010E948AEBC8
:104A80009B01AC01C501B4010E9466EC0E9450EC90
:104A90000E94D3EC6D837E838F83988769817A81AE
:104AA0008B819C8190958095709561957F4F8F4FFC
:104AB0009F4F0E94A0E44B015C016D857E858F8530
:104AC00098890E949EE469837A838B839C8320E08B
:104AD00030E0A901C501B4010E949AE4882309F4D9
:104AE000F0C029813A814B815C81CA01B9010E94E1
:104AF000FFE46D8B7E8B8F8B988FA7019601C7018A
:104B0000B6010E94FFE49B01AC016D897E898F890B
:104B1000988D0E9489EB6B017C01A5019401C50170
:104B2000B4010E948AEB9B01AC01C701B6010E944F
:104B300066EC0E94FFECA98DBA8D95968D909D90A4
:104B4000AD90BC909897750164012D813E814F8195
:104B50005885C21AD30AE40AF50A0E94D3ECC61A91
:104B6000D70AE80AF90AF7FE6EC020E030E0A90192
:104B7000C301B2010E949AE4882309F4A6C0C501CA
:104B8000B4010E949EE46B017C01A3019201C30168
:104B9000B2010E948AEB9B01AC01C701B6010E94E1
:104BA000FFE46B017C0129853A854B855C85CA0150
:104BB000B9010E94FFE49B01AC01C701B6010E944C
:104BC00089EB6B017C0129813A814B815C81CA01AF
:104BD000B9010E94FFE49B01AC01C701B6010E942C
:104BE0008AEB6B017C0120E030E040E850E4C30137
:104BF000B2010E94FFE49B01AC01C701B6010E9413
:104C000066EC0E9450EC6B017C0120E030E0A901D1
:104C10000E94B1ED18161CF0C12CD12C7601C701F1
:104C2000B6010E94D3EC6D837E838F8398878616AE
:104C30009706A806B90620F48D829E82AF82B886B8
:104C4000C12CD12C76018D819E81AF81B885E98DF3
:104C5000FA8D82A793A7A4A7B5A7C80ED91EEA1EEE
:104C6000FB1EC6A6D7A6E0AAF1AA29893A894B89D4
:104C70005C8923AF34AF45AF56AFFF962D853E8597
:104C80004F85588920833183428353836A960FB6B8
:104C9000F894DEBF0FBECDBFDF91CF911F910F9172
:104CA000FF90EF90DF90CF90BF90AF909F908F904C
:104CB0007F906F905F904F90089560E070E0CB011F
:104CC000E5CE60E070E0CB0134CF60E070E0CB0176
:104CD00098CF0F931F938091621090916310891B5E
:104CE0008F7009F449C090915F10992361F083306F
:104CF00040F48FEF890F29F080935F1090E080E0FF
:104D000038C010925F10809163102CE4829FC00124
:104D10001124845F974FFC01208120FDEFCF40914B
:104D20003105509132056091330570913405E85B8F
:104D3000FF4F0081118122813381401B510B620B97
:104D4000730B409331055093320560933305709394
:104D50003405209163102F5F2F70209360103091E5
:104D6000631020916110321304C0209160102093D1
:104D700061101F910F9108950E9444A3BFCF90919D
:104D80006F0081E091FD02C080E0089590916F0076
:104D90009D7F90936F000895EFE6F0E08081826040
:104DA00080830895CF92DF92EF92FF92CF93DF93AB
:104DB000C82FE5DF94E0C99FE0011124FE01E55B07
:104DC000FA4FC080D180E280F3808111E5DFCB5CB7
:104DD000DA4FC701B6010E94A0E4288139814A81D7
:104DE0005B810E94FFE4DF91CF91FF90EF90DF9015
:104DF000CF900895CF93DF9324E0829FC0011124C8
:104E0000EC01C553D84FFC01EC55F94F8B5B984F23
:104E1000DC012D913D914D915C9160817181828188
:104E200093810E948AEB688379838A839B83DF91D5
:104E3000CF910895CF93DF931F92CDB7DEB78983CB
:104E400060E0CE0101960E945B1661E0CE01019602
:104E50000E945B1662E0CE0101960E945B1689817A
:104E60000F90DF91CF9108958F929F92AF92BF9252
:104E7000CF92DF92EF92FF92CF93DF9320913F0288
:104E8000222309F49EC0EC0180918505C82ED12C07
:104E9000F12CE12C80FF2CC08090410290904202C6
:104EA000A0904302B0904402288139814A815B81FD
:104EB000C501B4010E94B1ED181624F488829982CC
:104EC000AA82BB8280904D0290904E02A0904F0229
:104ED000B0905002288139814A815B81C501B401BB
:104EE0000E949AE487FF04C088829982AA82BB82CA
:104EF000D701C601B695A7959795879580FF2CC0D9
:104F00008090450290904602A0904702B0904802DF
:104F10002C813D814E815F81C501B4010E94B1EDBC
:104F2000181624F48C829D82AE82BF82809051023A
:104F300090905202A0905302B09054022C813D8177
:104F40004E815F81C501B4010E949AE487FF04C0CD
:104F50008C829D82AE82BF8282E0F694E794D794E1
:104F6000C7948A95D1F7C0FE2CC0C0904902D0905A
:104F70004A02E0904B02F0904C02288539854A8520
:104F80005B85C701B6010E94B1ED181624F4C886EE
:104F9000D986EA86FB86C0905502D0905602E090F2
:104FA0005702F0905802288539854A855B85C701EC
:104FB000B6010E949AE487FF04C0C886D986EA86B3
:104FC000FB86DF91CF91FF90EF90DF90CF90BF9065
:104FD000AF909F908F900895CF92DF92EF92FF92C3
:104FE0000F931F93CF93DF93E82FF0E0EF01CC0FE7
:104FF000DD1FCC0FDD1F461739F0823009F049C0A4
:10500000C12CD12C760117C08230D1F3A0910908B0
:105010008A2F90E0DC01AA0FBB1FA80FB91FAE0FAB
:10502000BF1FAA0FBB1FAA0FBB1FA457B94FCD901C
:10503000DD90ED90FC908F01000F111F000F111FEC
:10504000F801E05DF14F2591359145915491C15C96
:10505000DD4FC701B6010E948AEB6A837B838C8394
:105060009D83F801EC5DF14F259135914591549167
:10507000C701B6010E948AEB6E877F87888B998B68
:10508000DF91CF911F910F91FF90EF90DF90CF9024
:10509000089550E0DA01AA0FBB1FA40FB51FAE0F91
:1050A000BF1FAA0FBB1FAA0FBB1FA457B94F862F44
:1050B00090E0BC01660F771F680F791FE60FF71F9E
:1050C000EE0FFF1FEE0FFF1FE457F94F20813181D4
:1050D000428153816D917D918D919C910E9489EBCC
:1050E0006B017C01C15CDD4FAC019B016A817B815E
:1050F0008C819D810E948AEB6A837B838C839D8354
:10510000A70196016E857F8588899989B3CF4091E3
:105110000908BC0187E692E00C940FB04F925F92B1
:105120006F927F928F929F92AF92BF92CF92DF92B7
:10513000EF92FF920F931F93CF93DF93CDB7DEB71C
:105140002C970FB6F894DEBF0FBECDBF2B013C01EC
:1051500029873A874B875C8747015801F601E08031
:10516000F1800281138120E030E0A901B701C8017C
:105170000E949AE4882309F481C05E2D4F2D302FC0
:10518000212F852F942FA32FB22F89839A83AB834E
:10519000BC8320E030E0A901B701C8010E949AE475
:1051A000811104C0E12CF12C00EA11E4C701D801FF
:1051B0008D839E83AF83B887A501940160916F02B0
:1051C0007091700280917102909172020E949AE433
:1051D00087FF0BC080926F0290927002A0927102C2
:1051E000B0927202CE01059692DF40926702509211
:1051F00068026092690270926A0289859A85AB851D
:10520000BC8580936B0290936C02A0936D02B09367
:105210006E02CE0101967BDFA501940160916F02C1
:105220007091700280917102909172020E94B1EDB2
:1052300018165CF480926F0290927002A092710234
:10524000B0927202CE01059662DF0E94B8A62C963B
:105250000FB6F894DEBF0FBECDBFDF91CF911F9187
:105260000F91FF90EF90DF90CF90BF90AF909F9005
:105270008F907F906F905F904F90089550E040E046
:1052800035E023E47ECFCF92DF92EF92FF920F932F
:105290001F936B01FC01E080F18002811381E7E63E
:1052A000F2E024813581468157816081718182815C
:1052B000938134DF1F910F91FF90EF90DF90CF909B
:1052C00008954F925F926F927F928F929F92AF92CA
:1052D000BF92CF92DF92EF92FF9251DDF82E809134
:1052E000631080936210809361108093601084E655
:1052F00080935F100E9444A380ED93E090935C0E36
:1053000080935B0EF11048DD81E080934A050E9496
:10531000B8A680E00E944EA96093240570932505ED
:10532000809326059093270581E00E944EA9609303
:1053300028057093290580932A0590932B0582E018
:105340000E944EA96B017C01C0922C05D0922D05C4
:10535000E0922E05F0922F054090240550902505EF
:10536000609026057090270580902805909029056B
:10537000A0902A05B0902B0583E00E944EA9409290
:105380006702509268026092690270926A0280928B
:105390006B0290926C02A0926D02B0926E02C0926B
:1053A0006F02D0927002E0927102F09272026093EA
:1053B0007302709374028093750290937602FF904B
:1053C000EF90DF90CF90BF90AF909F908F907F90A5
:1053D0006F905F904F900C943DB0CF93DF93CDB71B
:1053E000DEB72C970FB6F894DEBF0FBECDBF0E947C
:1053F000D8BCC5DC9CE0E7E5F5E0DE011196019044
:105400000D929A95E1F78111C7DCCE0101960E94B9
:10541000C28D2C960FB6F894DEBF0FBECDBFDF91C4
:10542000CF91089580912305649B5BC08160809338
:105430002305909103018091230590FF54C0826061
:1054400080932305809123054A9B4FC084608093FD
:1054500023058091490580FF13C0809196058295B0
:105460008695877080FD0CC08091230580FF08C061
:105470008091C10781608093C10780E00E94E28D26
:1054800080914905869580FF14C08091960582958C
:1054900086958695837080FD0CC08091230581FFE1
:1054A00008C08091C10782608093C10781E00E949B
:1054B000E28D809149058695869580FF18C0809180
:1054C00096058695869580FD12C08091230582FF02
:1054D0000EC08091C10784608093C10782E00C9464
:1054E000E28D8E7FA4CF8D7FABCF8B7FB0CF089521
:1054F0000F931F938091CA07813019F50E94B5B6AA
:1055000000911F0510912005209121053091220561
:10551000601B710B820B930B28EE33E040E050E0F0
:105520000E94AEEA60911B0570911C0580911D05DB
:1055300090911E05620F731F841F951F1F910F917D
:10554000089560913E0770913F07809140079091C8
:105550004107D6CF1092CA0710921F05109220055E
:10556000109221051092220510923E0710923F07DB
:10557000109240071092410710921B0510921C05D3
:1055800010921D0510921E0508958091CA07813062
:10559000E1F08230C1F4ACDF60931B0570931C0511
:1055A00080931D0590931E0581E08093CA070E9499
:1055B000B5B660931F0570932005809321059093E5
:1055C000220581E00895C6DFEFCF80E00895809145
:1055D000CA078150823070F41092CA070E94B5B693
:1055E00060933E0770933F07809340079093410775
:1055F00081E0089580E00895282F30E094E035950B
:1056000027959A95E1F797E32A3008F490E3920FF3
:10561000909318028F7097E38A3008F490E3890F13
:105620008093190288E192E008952F923F924F9261
:105630005F926F927F928F929F92AF92BF92CF9222
:10564000DF92EF92FF920F931F93CF93DF9300D0DF
:1056500000D0CDB7DEB70E94B5B60091920510918B
:1056600093052091940530919505011511052105AB
:10567000310509F00CC320918A10222309F44AC095
:10568000E0918810215020938A1021E02E0F209362
:10569000881030918B10231302C01092881024E0E0
:1056A000E29FF0011124E457FF4E00811181228115
:1056B000338100938E0510938F05209390053093CE
:1056C0009105600F711F811D911D6093920570936C
:1056D0009305809394059093950580919005909102
:1056E0009105892BB9F08FB78E83F89420908E05A1
:1056F00030908F052101712C612C00919005109143
:105700009105809123028532F1F08F3F09F496C014
:105710009E819FBF26960FB6F894DEBF0FBECDBF09
:10572000DF91CF911F910F91FF90EF90DF90CF907D
:10573000BF90AF909F908F907F906F905F904F90B1
:105740003F902F900895E3ECFFE194919D8397FDA6
:10575000DFCF61E085E20E9446B68D81882321F08B
:105760009D81923009F0BDC14801B12CA12C60E0AF
:1057700072E18AE790E0A50198010E94D0EA2983AE
:105780003A834B835C8369017A0121E0C21AD10814
:10579000E108F1088FEFC816D104E104F10409F023
:1057A0000CF46FC160E472E48FE090E0A501980111
:1057B0000E94D0EA69017A0191E0C91AD108E10892
:1057C000F1082D81223009F010C18FEFC816D104E5
:1057D000E104F10409F00CF4C0C260E970ED83E06B
:1057E00090E0A50198010E94D0EA69017A0191E058
:1057F000C91AD108E108F10883E02FEFC216D104DD
:10580000E104F10409F00CF4A1C268E478EE81E04F
:1058100090E0A50198010E94D0EA69017A0181E037
:10582000C81AD108E108F1089FEFC916D104E104B4
:10583000F10411F00CF0FDC084E088C285E2809391
:105840002302E3ECFFE124912D83822F2F3F09F403
:105850005FCF223009F469C060F4222381F1213046
:1058600009F445C087FD54CF61E085E20E9446B649
:1058700077CF9D81943009F49AC008F478C09530B0
:1058800089F71092200110922101809121018860F6
:105890008093210180912101816080932101E0EEBC
:1058A000FAE2E491F0E0EE0FFF1FEF55F54D859120
:1058B0009491E6E2FBE2E491E093FA044ACF14BC4F
:1058C00015BC84B5826084BD85B5816085BDE0EE80
:1058D000FAE2E491F0E0EE0FFF1FEF55F54D8591F0
:1058E0009491E6E2FBE2E491E093FE0432CF109261
:1058F00080001092810080918100886080938100F7
:1059000080918100816080938100E0EEFAE2E49171
:10591000F0E0EE0FFF1FEF55F54D85919491E6E213
:10592000FBE2E491E093FD0414CF1092B0001092DA
:10593000B1008091B00082608093B0008091B1008E
:1059400081608093B100E0EEFAE2E491F0E0EE0FC6
:10595000FF1FEF55F54D85919491909387058093A6
:105960008605E6E2FBE2E491E0938805F2CE109230
:105970009000109291008091910088608093910036
:1059800080919100816080939100E0EEFAE2E491D1
:10599000F0E0EE0FFF1FEF55F54D85919491E6E293
:1059A000FBE2E491E093FC0423E02D83D2CE10923D
:1059B000A0001092A1008091A10088608093A100B6
:1059C0008091A10081608093A100E0EEFAE2E49171
:1059D000F0E0EE0FFF1FEF55F54D85919491E6E253
:1059E000FBE2E491E093FB04B4CE8FEFC816D10440
:1059F000E104F10409F00CF472C068E478EE81E08F
:105A000090E0A50198010E94D0EA69017A0191E035
:105A1000C91AD108E108F1082D81222309F462C1D5
:105A20002FEFC216D104E104F10411F00CF063C1B0
:105A300003CF64E274EF80E090E0A50194010E943E
:105A4000D0EA69017A0181E0C81AD108E108F108B9
:105A500085E09FEFC916D104E104F10409F008F4D0
:105A600075C162E17AE780E090E0A50194010E94AF
:105A7000D0EA69017A0181E0C81AD108E108F10889
:105A80004CC181E02D81211161C195B5987F892B91
:105A900085BD2FEF3FEFA90145284628472809F08B
:105AA00048C09D81923009F4E2C00CF0C9C099232E
:105AB00009F4CEC0913009F02BCED0928900C0926B
:105AC000880020930B0530930C0540930D055093EF
:105AD0000E0580916F00826080936F0019CE82E086
